:020000040800F2
:10000000F80A002005010008F32A00085D2800080E
:10001000F12A000819090008F93200080000000060
:10002000000000000000000000000000592E000841
:10003000310D000800000000F52A00085B2E0008C2
:100040001F0100081F0100081F0100081F01000810
:100050001F0100081F0100081F0100081F01000800
:100060001F0100081F0100081F0100081F010008F0
:100070001F0100081F0100081F0100081F010008E0
:100080001F0100081F0100081F0100081F010008D0
:100090001F0100081F0100081F0100081F010008C0
:1000A0001F0100081F0100081F0100081F010008B0
:1000B0001F0100081F010008E12E00081F010008B1
:1000C0001F0100081F0100081F0100081F01000890
:1000D0001F010008ED3200081F0100081F01000881
:1000E0001F0100081F0100081F010008DFF810D0E1
:1000F00000F020FB00480047753F0008AFF3008088
:10010000F80A00200648804706480047FEE7FEE759
:10011000FEE7FEE7FEE7FEE7FEE7FEE7FEE7FEE7B7
:10012000DF2E0008ED000008202A04DB203A21FA27
:1001300002F00021704721FA02F3D040C2F1200200
:100140009140084319467047D2B201E000F8012BF4
:10015000491EFBD270470022F6E710B513460A4647
:1001600004461946FFF7F0FF204610BD30B505469E
:100170002A460B4612F8010B13F8014B08B1A042B6
:10018000F8D01CB1002802D06D1CF1E7284630BD24
:1001900070B5064603F0D6F8046805460A22002129
:1001A000304600F09FF82C6070BD30B480EA010248
:1001B00002F0004530F0004221F0004013D090B131
:1001C000C30DD40DC2F31601C0F31600E41A41F4B6
:1001D000000140F400027D34914201D3641C00E030
:1001E0004900002C02DA30BC002070474FF40000B8
:1001F0000023914201D3891A034340084FEA410189
:10020000F7D151B1914202D14FF0004105E002D245
:100210004FF0010101E06FF0010103EBC4502844ED
:1002200030BC00F097B896230022114600F09BB82E
:1002300000F0004230F000400AD0C10D01F56071BD
:10024000C0F3160042EA0151C2084007114370474B
:1002500000200146704730B50B46014600202022A1
:10026000012409E021FA02F59D4205D303FA02F5C3
:10027000491B04FA02F52844151EA2F10102F1DC23
:1002800030BD2DE9F05F0546002092469B4688462A
:100290000646814640241BE0284641464746224602
:1002A000FFF742FF53465A46C01A914110D31146F8
:1002B0001846224600F050FA2D1A67EB01084F4607
:1002C00022460120002100F047FA17EB00094E41B9
:1002D000201EA4F10104DFDC484631462A4643468D
:1002E000BDE8F09F2DE9F04791460F468046044651
:1002F000002614F8015B2DB100F050FA0068405D53
:10030000C007F6D12B2D02D02D2D18D0641E4A46E1
:100310003946204600F046FA27B13968A14201D19A
:10032000C7F8008071054FF002040BD54042002849
:1003300003DD03F007F80460A007BDE8F08746F48A
:100340008066E4E70028F8DA02F0FCFF04606FF052
:100350000040F2E70029A8BF7047401C490008BFD1
:1003600020F00100704710B4B0FA80FC00FA0CF0E5
:1003700050EA010404BF10BC704749B1CCF120041D
:1003800021FA04F411FA0CF118BF012121430843AA
:10039000A3EB0C01CB1D4FEA00614FEA102042BFD6
:1003A000002010BC704700EBC35010440029A4BFCC
:1003B00010BC7047401C490008BF20F0010010BC71
:1003C00070472DE9FE4F804681EA0300C00F0C46BE
:1003D000009021F0004123F00045B8EB0200A94154
:1003E00005D24046214690461C460B46024623F065
:1003F0000040104347D0270DC7F30A00C3F30A514A
:100400000290401A019040286BDAC3F3130040F4C5
:10041000801B0098924620B10023D2EB030A63EBC5
:100420000B0B01985946C0F14002504600F094F978
:1004300006460D4650465946019A00F09CF910EBCD
:1004400008006141002487EA115284EAE7731A43E5
:1004500040D0009A62B3019A012A4FEA075215DC94
:10046000001B61EB02014FF0004202EA0752CDE9A6
:100470000042001C41F5801132462B4600F0F0F995
:1004800003B0BDE8F08F40462146F9E7001B61EB61
:100490000201001C41F5801300185B412018A2F5F1
:1004A000001747EB030140EAD570B6196D4111E022
:1004B0006D084FEA360645EAC0754FEA0752001B41
:1004C00061EB0201001C41F5801149084FEA300040
:1004D0000019514132462B4603B0BDE8F04F00F001
:1004E000B0B90098012240000023D0EB020263EB78
:1004F000E073009821464FEAE074B8EB000061EB2E
:100500000401E9E783F000435BE781F0004158E72D
:100510002DE9FE4F81EA030404F0004421F000417C
:1005200000944FF0000B23F0004350EA01045ED02A
:1005300052EA03045BD0C3F30A54C1F30A552C44B6
:10054000A4F2F3340194A0FB0254C1F3130141F46B
:100550008011C3F3130343F4801301FB024400FB37
:10056000034E840A970A44EA815447EA8357A4FB5E
:10057000076802958D0A05FB07854FEA932C04FB5B
:100580000C542705029D4FEA065847EA1637B5EB8B
:1005900008056EEB070C870E920E47EA811742EAB8
:1005A0008312A7FB0201B6EB0B0164EB00042B0DD9
:1005B00043EA0C335E1844EB1C50DA465146E7FB25
:1005C0000201C5F313044FEA0B3343EA14534FEA15
:1005D0000432019C43EA0603A4F10C040294009C3B
:1005E000CDE900B400F03CF903B0BDE8F08F002085
:1005F0000146F9E72DE9F04D81EA030404F0004BD0
:1006000021F0004514464FF0000A23F0004150EA63
:10061000050220D054EA01021DD0C5F30A57024654
:10062000C5F31303C1F31300C1F30A5640F4801558
:1006300043F48013A7EB0608101BD64608F2FD38DA
:1006400073EB050002D308F1010801E092185B4149
:10065000B8F1000F03DA00200146BDE8F08D00205C
:100660004FF48011064684460EE0171B73EB050716
:1006700005D3121B63EB050306434CEA010C490842
:100680004FEA300092185B4150EA0107EDD152EA7F
:10069000030012D082EA040083EA0501084305D072
:1006A000101BAB4106D20122002306E000224FF0CE
:1006B000004302E06FF0010253101AEB06004CEB0E
:1006C000085110EB0A0041EB0B01BDE8F04D00F0C2
:1006D000B8B8C1F30A52C1F3130140F2FF3341F439
:1006E00080119A4202DA00200146704740F23343FB
:1006F0009A42A2F2334202DC5242FFF715BD00F0EB
:100700002BB8000030B5041E71F1000404DB4FF07B
:100710000044404264EB0101141E73F1000405DB48
:100720001C464FF00043524263EB0403994208BF5A
:10073000904230BD064C074D06E0E06840F00103F2
:1007400094E8070098471034AC42F6D3FFF7D2FC88
:10075000604D0008804D0008202A04DB203A00FA92
:1007600002F1002070479140C2F1200320FA03F308
:10077000194390407047202A06DBCB17203A41FAF4
:1007800002F043EAE07306E041FA02F3D040C2F11E
:100790002002914008431946704700000048704706
:1007A0005C4D00082DE9F05F824600780027154671
:1007B0008B460AF10104B946302801D09DB113E0FF
:1007C00014F8010B0127782803D0582801D045B12F
:1007D0000AE00DB1102D07D10027102514F8010BE8
:1007E00002E0082500E00A250026B0460EE005FBE1
:1007F000080005FB06F1012701EB10461FFA80F8FF
:10080000B6F5803F00D3B94614F8010B294600F035
:1008100075F80028EBDABBF1000F05D00FB1641EAC
:1008200000E05446CBF80040B9F1000F06D002F0CA
:1008300089FD02210160C81EBDE8F09F48EA06401C
:10084000FAE710B5141E73F1000408DA401C41F1F8
:10085000000192185B411A4301D120F0010010BD44
:100860002DE9F04D92469B4611B1B1FA81F202E0BA
:10087000B0FA80F220329046FFF76EFF04460F4632
:1008800040EA0A0041EA0B0153465A46084313D096
:10089000114653EA010019D0C8F140025046FFF753
:1008A00043FC05460E46504659464246FFF754FF64
:1008B000084305D0012004E020463946BDE8F08D0C
:1008C0000020054346EAE0762C4337430A98630547
:1008D000E40AA0EB08000022FD0A44EA47540A306B
:1008E00002D500200146E9E7010510196941DDE95B
:1008F000084500196941BDE8F04DA2E73A2800D249
:10090000303820F02002412A01D3A2F1370088427A
:1009100001D34FF0FF307047FEE770B5827A022AAC
:1009200005D0042A03D0052A01D0002070BDC27A68
:100930003C3A292A04D2027B3C2A01D3642A01D9F9
:10094000002070BD072200230125C418667B233ECA
:10095000232E21D8A47BA4F10A06232E05D80C78D7
:1009600005FA02F6B4430C7007E0373C282C09D88E
:100970000C7805FA02F634430C70521E52B2541C25
:1009800002D003E0002070BD0722491C9B1CDBB293
:10099000502BDAD3012070BD002070BD0368002207
:1009A0001B685A6200680068426A8A42FCD370473A
:1009B00070B50446DDE90405226060602581A172FE
:1009C0005B1E536021680020886022684FF6FF712B
:1009D000D16021688861206801F0D2FB206801F0B5
:1009E0001FFC4FF4FA6402E0012000F0EFF900F080
:1009F00005FBA042F8D3BDE87040142000F0E6B932
:100A00001FB506490191032103910189009100213D
:100A100002914068694600F0EBF91FBD00003110FB
:100A20001FB54268018911611121019103210391D0
:100A300001890091002102914068694600F0D8F9CF
:100A40001FBD00002DE9FC5F04460F4690464FF0A5
:100A5000000BCDF800B0CDF804B0A07AEA464FF014
:100A60000109002806D0022874D0042801D00528E6
:100A70006FD1E9E021890022606800F0B8FA44F6FD
:100A800038212046FFF78AFF21890122606800F0A3
:100A9000AEFA1E212046FFF781FF2189606800F031
:100AA0009FFA10B10020BDE8FC9F50212046FFF7BF
:100AB00075FF2189606800F093FAE8B32821204689
:100AC000FFF76CFF0026C6F1040B00200AF80B00AC
:100AD00000252189606800F083FA0028F9D01E21E2
:100AE0002046FFF75BFF2189606800F079FA40B18A
:100AF0001AF80B00C5F1070109FA01F108430AF8D9
:100B00000B002189606800F06BFA0028F9D16D1C98
:100B1000EDB2082DDDD3761CF6B2052ED3D39DF8A9
:100B20000200FFF780FB0546E0669DF80000FFF736
:100B30007AFB20671FB101E009E00BE03D60B8F1EE
:100B4000000F02D0206FC8F800000120ABE70020A2
:100B5000A9E7E3E021890022606800F048FA41F249
:100B600088312046FFF71AFF21890122606800F0D2
:100B70003EFA1E212046FFF711FF2189606800F030
:100B80002FFA08B100208EE750212046FFF706FF1C
:100B90002189606800F024FAF0B328212046FFF78D
:100BA000FDFE0025C5F1040B00200AF80B0000260D
:100BB0002189606800F014FA0028F9D01E2120462F
:100BC000FFF7ECFE2189606800F00AFA40B11AF8DC
:100BD0000B00C6F1070109FA01F108430AF80B00FE
:100BE0002189606800F0FCF90028F9D1761CF6B282
:100BF000082EDDD36D1CEDB2052DD3D39DF8030077
:100C00009DF8021000EB0120FFF70DFB474D294630
:100C1000FFF7CBFAE06600E014E007B138609DF81A
:100C200001009DF8001000EB0120FFF7FCFA2946B7
:100C3000FFF7BBFA2067B8F1000F01D0C8F8000039
:100C4000012030E700202EE72046FFF7E9FE20894B
:100C5000616800040861052000F0B8F86168208927
:100C6000086114212046FFF799FE2089616800047D
:100C7000086105212046FFF791FEA4F860B0C4F892
:100C800068B020680068C0F824B000F0B7F90546E5
:100C90002046FFF7B5FE00F0B1F9401B08283ED80A
:100CA00000F0ACF9616E401A0128F4D9694620467B
:100CB000FFF733FE90B39DF800009DF80110421835
:100CC0009DF802009DF8031043181A449DF8043063
:100CD000D2B29A4223D101EB0020FFF7A4FA134DC0
:100CE0002946FFF762FAE06607B138609DF8010017
:100CF0009DF8001000EB0120FFF795FA2946FFF759
:100D000054FA2067B8F1000F01D0C8F8000084F849
:100D100074902046FFF784FE0120C4E6FFE784F8C4
:100D200074B02046FFF77CFE0020BCE600002041A6
:100D30007047704710B5002490F82110022903D0A5
:100D40000421816301243DE001680A6822F00E025B
:100D50000A6001680A6822F001020A601A4A016802
:100D6000914201D1012121E0174A1432914201D16F
:100D700010211BE0144A2832914201D1891515E057
:100D8000114A3C32914201D189140FE00E4A50328F
:100D9000914202D14FF4803108E00B4A6432914213
:100DA00002D14FF4801101E04FF08071064A083AF9
:100DB0005160012180F82110002180F82010416B42
:100DC00001B18847204610BD0800024070B50446B6
:100DD00000F014F90546601C02D004480078044471
:100DE00000F00CF9401BA042FAD370BD0C000020AB
:100DF0002DE9F84F00240023DFF8C4914FF00F08CD
:100E000009F1040A0AF1040B0BF1040ED1E00127E9
:100E1000A7403A40BA4275D1DFF8A8C14D68A5EBAA
:100E20000C0665452BD00DDC032D34D005DC35B325
:100E3000012D19D0022D2FD11BE0112D16D0122D0E
:100E40002AD119E0B6F5881F19D006DCB6F5803F27
:100E500015D0B6F5801F1FD111E0B6F5001F0ED0DA
:100E6000B6F5041F18D10AE0CB6815E0CB681B1D4E
:100E700012E0CB6808330FE0CB680C330CE08B68D2
:100E800023B1012B04D00823476105E0042303E0CC
:100E90000823076100E00023FF2A01D8054601E08E
:100EA00000F1040502D84FEA840603E0A4F1080625
:100EB0004FEA86062F6808FA06FC27EA0C0703FAB1
:100EC00006F647EA06072F604D68ED0070D53E4DE7
:100ED000AE6946F00106AE61AD6905F00105009509
:100EE0003A4D24F003067719BE68A5072D0F08FABE
:100EF00005FC26EA0C06DFF8D8C0604503D14FF0A8
:100F0000000C17E054E0DFF8CCC0604502D14FF090
:100F1000010C0FE0DFF8C0C0604502D14FF0020CB9
:100F200008E0DFF8B8C0604502D14FF0030C01E0E3
:100F30004FF0040C0CFA05FC4CEA060CC7F808C08C
:100F40004D68ED0305D5D9F800501543C9F8005098
:100F500004E0D9F800509543C9F800504D68AD033E
:100F600005D5DAF800501543CAF8005004E0DAF865
:100F700000509543CAF800504D68ED0205D5DBF8E6
:100F800000501543CBF8005004E0DBF800509543C7
:100F9000CBF800504D68AD0205D5DEF80050154382
:100FA000CEF8005004E0DEF800509543CEF8005033
:100FB000641C0A6832FA04F57FF429AFBDE8F88FA3
:100FC0000004014000001110001002400000014028
:100FD00000080140000C01400010014000140140D5
:100FE0008068084201D00120704700207047002A25
:100FF00001D00161704709040161704701488068B0
:10100000704700000C00002070B50446002C04D08E
:1010100094F83D00002510B106E0012070BD84F871
:101020003C50204600F0BCF8242084F83D002068A5
:10103000016821F0010101602068016841F400416C
:1010400001602068016821F40041016000F014FB98
:101050004F4B6168994203D84E49884203D304E05C
:101060004D49884201D2012070BD4C49B0FBF1F1DD
:101070002268566826F03F060E43566062689A4220
:1010800001D8491C07E04FF4967251434FF47A722D
:10109000B1FBF2F1491C2268166A26F03F06314383
:1010A00011626168994210D84900401EB0FBF1F20C
:1010B000521CC2F30B02042A01D2042022E0B0FB2E
:1010C000F1F0401CC0F30B001CE0A268F2B301EB8E
:1010D000C10303EB0116431EB3FBF6F35B1C43F4A1
:1010E00080431B0549D092B301EBC10202EB011111
:1010F000401EB0FBF1F0401CC0F30B0040F48040F8
:1011000040F400402168CA694CF6FF739A431043CB
:10111000C861D4E9071001432068026822F0C002C8
:1011200011430160D4E9030101432068826848F259
:10113000FF339A4311438160D4E9051001432068CD
:10114000C26822F0FF021143C16001E00EE016E028
:101150002068016841F0010101602564202084F8C5
:101160003D00256384F83E50002070BD01EB410630
:10117000431EB3FBF6F35B1CB3E70120C2E701EBB0
:101180004101401EB0FBF1F0401CC0F30B00B7E77B
:10119000A086010080841E0000093D0040420F002F
:1011A00010B586B000210291039104910591006869
:1011B0000F4988421AD10F4CA06940F00800A06185
:1011C000A06900F008000190C02002901220039056
:1011D0000320059002A90848FFF70AFEE06940F4E1
:1011E0000010E061E06900F40010019006B010BD4D
:1011F0000054004000100240000C01400248816889
:1012000002781144816070470C00002010B5074837
:10121000016841F010010160032000F077F8002020
:1012200000F006F800F026F8002010BD0020024073
:1012300070B504460D4D4FF47A712878B1FBF0F08B
:101240000B490968B1FBF0F000F04FFF08B1012035
:1012500070BD102C07D200222146501E00F036F837
:101260006C60002070BD012070BD00000C000020EB
:101270001800002008B50C48816941F00101816126
:10128000816901F001010091C16941F08051C161A2
:10129000C06900F0805000900449486820F0E06088
:1012A00040F00070486008BD00100240000001409E
:1012B000002809DB00F01F02012191404009800055
:1012C00000F1E020C0F8001170470000F0B40D46B6
:1012D0000D4B1B68C3F30223C3F10704042C00D990
:1012E0000424191D072901D2002300E0DB1E01267A
:1012F00006FA04F1491E294099409E40761E164088
:101300003143F0BC02F00EB80CED00E000F0070134
:10131000054A10684FF6FF03184040EA01200349D0
:1013200008431060704700000CED00E00000FA0573
:10133000014901200862704700000E4210B586B0D6
:1013400001462AA090E81C00C068CDE9033402924F
:1013500005902AA0006801900020294C012922D084
:10136000022939D010291CD161682268D20118D510
:1013700002A8C1F38342805CC90309D5616801AA50
:10138000C1F34041515C1F4AB2FBF1F1484301E017
:101390001D4948436168490203D440000321B0FB62
:1013A000F1F006B010BD216AC1F30122012A03D178
:1013B000890701D5D003F4E7022A05D1616A8907BC
:1013C00002D549F64040ECE7032AEAD121688903B7
:1013D000E7D54FF22440E4E700F05EF96168C1F31D
:1013E0008131491C4900B0FBF1F0DAE70203040542
:1013F000060708090A0B0C0D0E0F10100102000061
:101400000010024000127A0000093D002DE9F84367
:101410000446DFF8F8802078C0075FD00027D8F8AE
:101420001C00C0000BD4D8F81C0040F08050C8F855
:101430001C00D8F81C0000F0805000900127344DAB
:101440002868C00512D4286840F480702860FFF72F
:10145000D5FD064607E0FFF7D1FD801B642802D9C1
:101460000320BDE8F8832868C005F4D5D8F820002B
:1014700000F4407010B3A18801F4407181421DD086
:10148000D8F8200020F44070224901220A6000228E
:101490000A60C8F82000C00710D0FFF7AFFD05466E
:1014A00041F2883606E0FFF7A9FD401BB04201D9A2
:1014B0000320D6E7D8F820008007F4D5D8F820001C
:1014C000616820F440700843C8F82000012F05D15E
:1014D000D8F81C0020F08050C8F81C002078800745
:1014E00007D5D8F80400A16820F440400843C8F8A4
:1014F00004002078C00607D5D8F80400E16820F47D
:1015000080000843C8F804000020AAE70010024049
:1015100000700040400442422DE9F04704460D4669
:10152000002C17D0DFF83081D8F8000000F0070059
:10153000A84211D2D8F8000020F007002843C8F8CC
:101540000000D8F8000000F00700A84204D00120F5
:10155000BDE8F0870120FBE72068404E810712D5E7
:10156000400703D5706840F4E060706020780007A1
:1015700003D5706840F4605070607068A16820F016
:10158000F000084370602078C0072CD06068012804
:1015900006D0022809D0316889070BD40120D7E78B
:1015A0003168890306D40120D2E73168890101D46A
:1015B0000120CDE7716821F0030101437160FFF75D
:1015C0001DFD074641F2883906E0FFF717FDC01BF5
:1015D000484501D90320BBE77068616800F00C0042
:1015E000B0EB810FF1D1D8F8000000F00700A8425D
:1015F0000ED9D8F8000020F007002843C8F80000F2
:10160000D8F8000000F00700A84201D001209FE7B1
:101610002078400705D57068E16820F4E060084351
:1016200070602078000706D57068216920F460504A
:1016300040EAC100706000F03FF87168084AC1F3E9
:101640000311515CC8400749086007480068FFF76C
:10165000EFFD00207CE70000002002400010024067
:10166000C04C00081800002010000020014800684D
:10167000704700001800002000B5FFF7F7FF04498D
:101680004968044AC1F30221515CC84000BD000012
:1016900000100240D04C000800B5FFF7E7FF0449F6
:1016A0004968044AC1F3C221515CC84000BD000032
:1016B00000100240D04C000885B014A090E80E0045
:1016C000C068CDE902230191049014A00068009045
:1016D000134B5968134801F00C02042A10D0082A51
:1016E0000ED101A8C1F38342805CC9030AD55968B1
:1016F000C1F340411DF801100A4A5043B0FBF1F01C
:1017000005B0704708494843FAE7000002030405A2
:10171000060708090A0B0C0D0E0F1010010200003D
:101720000010024000127A0000093D002DE9F84F38
:101730000446002C0ED02078D94DC0075ED06868D2
:10174000C0F3810001280BD06868C0F38100022833
:1017500003D00CE00120BDE8F88F6868C00306D50F
:10176000286880034AD56068A8BB0120F3E7606859
:10177000B0F5803F11D0A8B1B0F5A02F1BD02868DC
:1017800020F480302860286820F480202860606879
:1017900030B3FFF733FC06461EE0286840F4803083
:1017A0002860F4E7286820F480302860286820F456
:1017B00080202860EBE7286840F4802028602868B3
:1017C00040F480302860E2E7FFF718FC801B6428B3
:1017D00002D90320BFE711E028688003F4D50DE0AB
:1017E000FFF70CFC064606E0FFF708FC801B6428A8
:1017F00001D90320AFE728688003F5D42078DFF80B
:10180000A48280074FF0010A4FF0000945D56868AF
:1018100010F00C0F07D06868C0F38100022812D1C5
:101820006868C0030FD42868800704D520690128A0
:1018300001D001208FE72868616920F0F80040EAB4
:10184000C100286029E02069B8B1C8F800A0FFF7FE
:10185000D5FB064606E0FFF7D1FB801B022801D925
:10186000032078E728688007F5D52868616920F0AB
:10187000F80040EAC10028600FE0C8F80090FFF7C8
:10188000BDFB064606E0FFF7B9FB801B022801D925
:10189000032060E728688007F5D42078000726D564
:1018A0008148A16999B1C0F800A0FFF7A7FB0646DF
:1018B00006E0FFF7A3FB801B022801D903204AE7BB
:1018C000686A8007F5D5012001F016F90FE0C0F82D
:1018D0000090FFF793FB064606E0FFF78FFB801BA7
:1018E000022801D9032036E7686A8007F5D42078FA
:1018F000400773D50026E869C00008D4E86940F0C5
:101900008050E861E86900F0805000900126DFF81F
:101910009CB1DBF80000C00514D4DBF8000040F4F3
:101920008070CBF80000FFF769FB074606E0FFF781
:1019300065FBC01B642801D903200CE7DBF800001D
:10194000C005F4D5E068012812D0B0B105281DD03B
:10195000286A20F001002862286A20F0040028622A
:10196000E06841F2883B28B3FFF748FB07461DE0DB
:10197000286A40F001002862F2E7286A20F001009E
:101980002862286A20F004002862E9E7286A40F00B
:1019900004002862286A40F001002862E0E7FFF7AF
:1019A0002DFBC01B584501D90320D4E6286A8007C7
:1019B000F5D50DE0FFF722FB074606E0FFF71EFB1B
:1019C000C01B584501D90320C5E6286A8007F5D415
:1019D000012E03D1E86920F08050E861E069A0B3EE
:1019E0006968C1F38101022946D0022805D0C8F8F0
:1019F0006090FFF703FB04463AE0C8F86090FFF7F9
:101A0000FDFA064606E0FFF7F9FA801B022801D925
:101A10000320A0E628688001F5D4206AB0F5803F55
:101A200005D16868A16820F4003008436860D4E9F3
:101A300008010843696821F4741108436860C8F814
:101A400060A0FFF7DBFA044607E026E0FFF7D6FACE
:101A5000001B022801D903207DE628688001F5D506
:101A60001BE0FFF7CBFA001B022801D9032072E626
:101A700028688001F5D410E001280CD06868226A3B
:101A800000F48031914204D1616A00F47010884200
:101A900003D001205FE601205DE600205BE6000048
:101AA00000100240000042428004424200700040A8
:101AB0002DE9F04707460C469046002F07D034B179
:101AC00038684068400704D50120BDE8F087012050
:101AD000FBE7384601F0DFF805464FF46160B5FBDF
:101AE000F0F1B5FBF0F200FB12533C22B3FBF2F332
:101AF0006370B5FBF0F300FB1350B0FBF2F302FB95
:101B00001300A070182936D31820B1FBF0F9B1FBEF
:101B1000F0F200FB12102070384601F0B5F8411CBD
:101B200003D0A84201D9461B01E04FF0FF36A9EBD4
:101B3000091000EB4000C0EB001005EBC015294672
:101B4000384601F002F908B10120BEE7701C06D04A
:101B50007119384601F0E2F840B10120B5E731468D
:101B6000384601F0DBF808B10120AEE749463846B7
:101B700000F0E8FF00E02170B8F1000F0BD02078F2
:101B800000F0D5FF2070607800F0D1FF6070A07881
:101B900000F0CDFFA070002097E7000070B504466C
:101BA000002C03D0607C002610B105E0012070BD40
:101BB0002674204600F04CF802206074204600F0A5
:101BC00027F9042510B16574012070BD204601F08D
:101BD00010F810B16574012070BD2068416821F0D3
:101BE00007014160A06820B11848016821F0010197
:101BF00001601648001F0168A26821F4607111435A
:101C000001606068411C04D10120FFF797FB98B187
:101C1000401E21688A6822F00F0242EA10428A6060
:101C20002168CA6860F30F02CA60204600F0FBFF1B
:101C300028B16574012070BD6574012070BDE67324
:101C400001206073A0736074002070BD306C004090
:101C500008B50068084988420DD1FFF769FB0748BD
:101C6000C16941F00061C161C06900F0006000908D
:101C700003490120086008BD002800400010024010
:101C80003C0442422DE9F04104460D46002C3FD071
:101C9000E5B3207C01283DD0012626740220607423
:101CA000AAB3E87800F03AFFE073687800F036FFF6
:101CB0006073A87800F032FFA073A27B617BE07BA9
:101CC00000F0F9FF20732870204600F0E4FF4FF485
:101CD0006161B0FBF1F10025182936D91822B1FB5A
:101CE000F2F1A1EB011101EB4101C1EB011100EB9C
:101CF000C1173946204601F028F84FF0040890B18A
:101D000084F8118025740120BDE8F08100E003E033
:101D10000120F9E70220F7E7E878E073687860735C
:101D2000A878A073C9E7204600F0AEFF411C0CD094
:101D3000B8420AD207490144204600F0EFFF20B123
:101D400084F8118025740120DEE766742574002074
:101D5000DAE70000805101002DE9F04104460D460C
:101D6000002C28D03DB3207C012826D001262674E3
:101D7000022060741AB3287800F0D0FE4FF461613D
:101D800000FB01F7687800F0C9FEC0EB001007EB1C
:101D90008007A87800F0C2FE3D182946204600F0D2
:101DA000D4FF00274FF00408A8B184F811802774ED
:101DB0000120BDE8F0810120FBE70220F9E7297846
:101DC0004FF4616041436878C0EB001001EB800084
:101DD000A9784518E1E72068416821F005014160D4
:101DE000204600F051FF411C0CD0A8420AD20749FE
:101DF0000144204600F092FF20B184F8118027743E
:101E00000120D6E7667427740020D2E780510100D4
:101E100070B50446002C0AD02068416821F0080102
:101E20004160FFF7EBF805464FF47A7608E00120B1
:101E300070BDFFF7E3F8401BB04201D9032070BD2D
:101E4000206840680007F4D5002070BD70B50446D6
:101E5000002C09D0606A002540B125616561A5624A
:101E600094F8510040B10CE0012070BD6068B0F5FD
:101E7000827FF4D0E561F2E784F85050204600F00C
:101E80003FF8022084F851002068016821F04001E9
:101E90000160A088218900F4827001F404410843A4
:101EA000A18901F400610843217C01F0020108438B
:101EB000217D01F001010843218B01F400710843E9
:101EC000217F01F03801084394F8201001F08001CF
:101ED0000843218D01F40051084321680860A0697E
:101EE000042101EA1040216848602068C16921F49A
:101EF0000061C1616565012084F85100002070BD5A
:101F000000B585B000210191029103910491006810
:101F1000104988421BD11048C16941F48041C16118
:101F2000C16901F480410091816941F0080181613A
:101F3000806900F0080000904FF4204001900220DA
:101F400002900320049001A90448FEF751FF05B058
:101F500000BD00000038004000100240000C0140AD
:101F60002DE9F84F04468B4692461D46002694F80C
:101F7000500001280DD04FF0010984F85090FFF770
:101F80003DF8074694F85100B046012804D00226D7
:101F9000A5E00220BDE8F88FBBF1000F1CD05FEA7E
:101FA0000A0019D0032084F85100C4F85480C4F802
:101FB00030B0A4F834A0A4F836A0C4F83880A4F84F
:101FC0003C80A4F83E80C4F84480C4F84080A068F7
:101FD000B0F5004F02D00BE0012680E020680168D8
:101FE00021F0400101602068016841F480410160F6
:101FF00020680168490603D4016841F0400101608E
:10200000E068B0F5006F05D0606878B3BAF1010FF1
:102010002DD04DE0606810B1BAF1010F20D1206BD6
:1020200021680088C860206B801C2063E08E401E01
:10203000E08615E020688168890709D5216B098849
:10204000C160206B801C2063E08E401EE08607E0AC
:10205000FEF7D4FFC01BA84201D3681C04D11DB1F8
:10206000E08E0028E6D126E0032638E0FFE7206B6B
:10207000216800780873206B401C2063E08E401EAE
:10208000E08615E020688168890709D5216B097809
:102090000173206B401C2063E08E401EE08607E049
:1020A000FEF7ACFFC01BA84201D3681C0ED16DB176
:1020B000E08E0028E6D13A462946204600F05CFE34
:1020C00008B120206065A06810B105E0032606E095
:1020D0002068C16880680090606D00B1012684F8B6
:1020E000519084F85080304654E710B5401EB0F14E
:1020F000807F01D3012010BD4FF0E02460610F21EB
:10210000601701F00FF90020A06107202061002076
:1021100010BD70477047000070B590F83C20012A50
:1021200025D0012680F83C60022280F83D2002681C
:102130005468936824F070050C682C4354600D4C6F
:102140000268A24208D0B2F1804F05D00A4CA242E8
:1021500002D00A4CA24204D123F0800349681943FB
:1021600091603C30467000210170002070BD02205B
:1021700070BD0000002C0140000400400008004039
:1021800010B50446002C03D094F83D0010B107E0D0
:10219000012010BD002084F83C00204600F016F815
:1021A000022084F83D00211D206800F09FFE0120E0
:1021B0003D3460726070A070E07020716071A07139
:1021C000E07120722070002010BD000008B500688A
:1021D000104A1149904208D1C86940F00200C86114
:1021E000C86900F00200009008BD0C4A9042FBD183
:1021F000C86940F00400C861C86900F0040000909C
:10220000002211461E20FFF761F8BDE808401E209D
:10221000FFF74EB8000400400010024000080040E4
:1022200090F83D10012901D001207047022180F86B
:102230003D1000680D49884208D0B0F1804F05D0AC
:102240000B49884202D00B49884209D1816801F0CC
:102250000701062908D0016841F00101016003E08F
:10226000016841F00101016000207047002C01402D
:10227000000400400008004070B5044694F83C009B
:10228000012817D0012584F83C50022084F83D0035
:102290002068826822F0770222F47F428260086818
:1022A000502831D00DDC20284DD005DCB0B31028EB
:1022B0004ED148E0022070BD302844D0402847D19C
:1022C00037E060282BD0702806D0B0F5805F3FD073
:1022D000B0F5005F3CD10BE0CB68D1E9012120686B
:1022E00000F03AFE2068816841F0770181602FE0BC
:1022F000CB68D1E90121206800F02EFE20688168BA
:1023000041F48041816023E0CA684968206800F098
:1023100035FE5021206800F029FE19E013E0CA685C
:102320004968206800F03BFE6021206800F01EFE36
:102330000EE0CA684968206800F020FE402120684D
:1023400000F014FE04E022680146104600F00EFE84
:102350003C3465700020207070BD704770B5044635
:10236000206801694FF00005C943890716D4C16888
:10237000C943890712D4E91E016101202077206832
:102380008069800703D02046FFF7E7FF05E020467D
:1023900000F09BF8204600F099F825772068016945
:1023A000C943490718D4C168C943490714D46FF019
:1023B00004010161022020772068806910F4407FC9
:1023C00003D02046FFF7C9FF05E0204600F07DF866
:1023D000204600F07BF8257720680169C94309078A
:1023E00017D4C168C943090713D46FF0080101610C
:1023F000042020772068C069800703D02046FFF7BB
:10240000ACFF05E0204600F060F8204600F05EF8E2
:10241000257720680169C943C90618D4C168C94332
:10242000C90614D46FF010010161082020772068DC
:10243000C06910F4407F03D02046FFF78EFF05E00F
:10244000204600F042F8204600F040F8257720684A
:102450000169C943C90708D1C168C943C90704D183
:10246000891E0161204600F033F820680169C943E4
:10247000090609D4C168C943090605D46FF0800173
:1024800001612046FFF745FE20680169C9434906FE
:1024900009D4C168C943490605D46FF04001016100
:1024A000204600F01BF820680169C94389060BD457
:1024B000C168C943890607D46FF020010161204635
:1024C000BDE87040FFF726BE70BD70477047000042
:1024D00001490120087070470200002070477047D2
:1024E00070B5044622681068D168526900F00F0385
:1024F000002B08D1850606D58D0604D52046BDE8FB
:10250000704000F0CABD002B60D002F0010301F45E
:1025100090751D435AD0C50705D0CD0503D5E56B91
:1025200045F00105E563450705D5D50703D0E56B03
:1025300045F00205E563850705D5D20703D0E26BB8
:1025400042F00402E263020707D501F020021A43B9
:1025500003D0E26B42F00802E263E26B002A2AD069
:10256000800604D5880602D5204600F096FD206836
:102570004069C0F38010E16B090700D400B3204626
:1025800000F070FD20684169490615D5416921F0C8
:1025900040014161606B58B115494163606BFEF7C2
:1025A000C9FB002807D0606B416BBDE8704008474D
:1025B0002046FFF794FF70BD2046FFF790FF70BDE7
:1025C0002046FFF78CFF0020E06370BD020606D5B1
:1025D0000A0604D52046BDE8704000F003BE400660
:1025E000F3D54806F1D52046BDE8704000F048BD5F
:1025F0005530000870B50446002C04D094F839001A
:10260000002510B106E0012070BD84F83850204646
:1026100000F022F8242084F839002068C16821F4F1
:102620000051C160204600F081FD2068016921F45D
:10263000904101612068416921F02A0141612068CF
:10264000C16841F40051C160E563202084F839007D
:1026500084F83A00002070BD30B585B000240194A4
:102660000294039404940068184988422CD11848B5
:10267000816941F480418161816901F48041009167
:10268000816941F004018161806900F004000090DB
:102690004FF40070019002200290032004900D4D31
:1026A00001A92846FEF7A4FB291501910294039481
:1026B00001A92846FEF79CFB002211462520FEF7C3
:1026C00005FE2520FEF7F4FD05B030BD00380140C1
:1026D000001002400008014090F83A30202B01D051
:1026E00002207047F9B1F2B190F83830012B1CD0BC
:1026F00081628285C2850021C163222280F83A204E
:1027000080F838100168CA6842F48072CA600168B3
:102710004A6942F001024A610068C16841F0200143
:10272000C160002070470120704702207047000000
:1027300030B400681549884220D1154C154AA1884B
:1027400031B9002000231354401C80B26428FAD30E
:1027500060780D2814D063290AD00B46491CA1804B
:10276000D0540B49012230BC491C0B48FFF7B4BFC1
:10277000A07840F0020040F00100A07030BC70472B
:10278000A07840F00100A070F8E700000038014098
:10279000020000208C040020400600202DE9F843B0
:1027A00004460E4615461F4694F83900202802D0EC
:1027B0000220BDE8F883C6B1BDB194F83800012805
:1027C00015D0012084F838004FF00009C4F83C907F
:1027D000212084F83900FEF711FC8046A584E584A9
:1027E000A068B0F5805F04D005E00120E1E7022099
:1027F000DFE7206920B13546002684F8389013E0E1
:102800000025FAE74346002280212046009700F089
:1028100018FD08B10320CCE79DB1216815F8010B24
:102820004860E08C401EE084E08C0028EAD14346FA
:10283000002240212046009700F003FD40B1032014
:10284000B7E736F8020B2168C0F308004860E8E7F4
:10285000202084F839000020ABE77047FEE7000035
:1028600030B585B0002401940294039404941F4869
:10287000816941F010018161816901F010010091CD
:10288000816941F020018161816901F0200100919D
:10289000816941F004018161816901F004010091C5
:1028A000816941F008018161806900F008000090B1
:1028B0000F4D002212212846FEF799FB02210191BB
:1028C000012202920394049101A92846FEF790FA8E
:1028D000102101911120029003940320049001A97A
:1028E0002846FEF785FA05B030BD00000010024012
:1028F0000008014010B50D480B4901600C494160CA
:1029000000218160C1604FF48042026141618161B8
:10291000C1610162FEF778FB002803D0BDE81040DA
:10292000FEF707BA10BD000000540040F00400207C
:10293000A08601001CB50024019400941948184990
:102940000160611E41604FF480718160FFF726F9DC
:1029500008B1FEF7EEF90F208DF8040039208DF84C
:1029600005008DF80640002201A90E48FFF7F4F992
:1029700008B1FEF7DEF906208DF8000001208DF881
:10298000010002208DF802008DF803400022694604
:102990000448FFF777F9002801D0FEF7CAF91CBDFB
:1029A000002800404405002010B510480E49016081
:1029B0004FF48271416000218160C1600161416119
:1029C0004FF4007282610822C26101624162816239
:1029D0000A21C162FFF73AFA002803D0BDE810408F
:1029E000FEF7A7B910BD00000038004058050020D0
:1029F00010B586B0002402940394049405940094C6
:102A0000019412481049016044608460C46004610C
:102A10008461FFF7B5FB08B1FEF78BF94FF48050E6
:102A2000029002A90948FFF727FC08B1FEF781F9D7
:102A30000094019469460548FFF76EFB002801D019
:102A4000FEF777F906B010BD00040040B005002085
:102A500010B586B000240294039404940594009465
:102A6000019414481249016040F2E73141608460EA
:102A700047F6FF41C16004618461FFF781FB08B143
:102A8000FEF757F94FF48050029002A90948FFF76A
:102A9000F3FB08B1FEF74DF900940194694605482F
:102AA000FFF73AFB002801D0FEF743F906B010BD4E
:102AB00000080040F805002010B50C480A490160E4
:102AC0004FF4E131416000218160C16001610C225D
:102AD00042618161C161FFF78DFD002803D0BDE82F
:102AE0001040FEF726B910BD003801404006002016
:102AF000FEE770477047000008B507494FF4FA52E7
:102B00000968B1FBF2F14143009100BF0098411EFA
:102B10000091FAD208BD000018000020010901EB65
:102B20008101490000F00F000844C0B27047002145
:102B300002E0491C0A38C0B20A28FAD2090740EA62
:102B4000116070472DE9F041064688460027F57B65
:102B5000747BB27B40E0012C16D0032C14D0052CE2
:102B600012D0072C10D0082C0ED00A2C0CD00C2C14
:102B70000AD0042C15D0062C13D0092C11D00B2C04
:102B80000FD0022C14D026E01F2A01D2521C22E0C2
:102B90000C2C02D0641C01221DE0012401226D1CBA
:102BA00019E01E2A01D2521C15E0641C012212E019
:102BB0001C2A02D202F101020DE008D1A8B200F0F5
:102BC0004CF808B11D2206E00324012203E01D2A6F
:102BD00001D1032401227F1C4745BCD3F573E1B228
:102BE0007173D2B2B273284600F065F83073BDE855
:102BF000F08170B50546FEF701FA04464FF47A7687
:102C000006E0FEF7FBF9001BB04201D9032070BDBE
:102C1000286840688006F4D52868416841F01001B2
:102C20004160002070BD70B505462868416821F0FC
:102C300010014160FEF7E2F904464FF47A7606E0AF
:102C4000FEF7DCF9001BB04201D9032070BD2868F3
:102C500040688006F4D5002070BD810701D00020B7
:102C600070476421B0FBF1F201FB120109B10120B0
:102C700070474FF4C871B0FBF1F201FB120008B1CC
:102C800000207047012070470068016A406A80B2E6
:102C900040EA014070470068816989B2C26993B215
:102CA000826992B2914203D0C06962F31F407047BB
:102CB00043EA01407047F0B500F5FA606427C1EBC4
:102CC000C1030925BE00072403EB0113032912D217
:102CD000B3FBF5F111440144401EB0FBF7F201EBE8
:102CE0009001B0FBF6F0891A0844001DB0FBF4F126
:102CF00004FB110010E0B3FBF5F11144B0FBF7F257
:102D0000014401EB9001B0FBF6F0891A0844801CE5
:102D1000B0FBF4F104FB1100C0B2F0BD70B5054684
:102D20000E4600242846FFF764FF08B101240AE09C
:102D30002968300C08622968B0B248622846FFF75B
:102D400072FF00B10124204670BD70B505460E46E5
:102D500000242846FFF74DFF08B101240AE0296846
:102D6000300C88612968B0B2C8612846FFF75BFF64
:102D700000B10124204670BD38B504460B460092D0
:102D800000228021204600F009F828B1606D40F053
:102D900020006065032038BD002038BD2DE9F843D0
:102DA00004460F4691461E46089DFEF727F9401B34
:102DB000351AFEF723F9804626480068C0F3CB3069
:102DC000684300903AE0701C38D0FEF717F9A0EB8A
:102DD0000800A84203D215B1009858B32BE0206830
:102DE000416821F0E00141606068B0F5827F0BD15D
:102DF000A068B0F5004F02D0B0F5806F04D1206814
:102E0000016821F040010160A06AB0F5005F09D1BE
:102E10002068016821F4005101602068016841F4D4
:102E200000510160012050346070002020700320A8
:102E3000BDE8F88300250098401E00902068806857
:102E400037EA000004D000204845BCD10020EFE75D
:102E50000120F9E7180000207047FEF7CFB970B5E0
:102E600094B028210AA8FDF776F9142105A8FDF7EA
:102E700072F90024019402940394049405200A90AA
:102E80004FF480300B900C9401250D950E95022681
:102E9000119612904FF4E01013900AA8FEF746FC2A
:102EA00008B1FDF746FF0F200590069607944FF4F2
:102EB000806008900994022105A8FEF72DFB08B157
:102EC000FDF737FF01954FF48070029001A8FEF7DF
:102ED0009DFA002801D0FDF72CFF14B070BD70479B
:102EE0000148FFF73BBA0000F8050020F0B5026882
:102EF000164C174D174E4FF08047A04205D0B842F0
:102F000003D0A84201D0B04203D122F070034A6836
:102F10001A43A04205D0B84203D0A84201D0B04223
:102F200003D122F44073CA681A434B6922F080022D
:102F30001A4302608A68C2620A688262A04201D1B2
:102F40000969016301214161F0BD0000002C0140CD
:102F5000000400400008004010B5846824F47F4459
:102F600042EA03220A432243826010BD826822F0B3
:102F700070020A4342F007018160704710B5036A8E
:102F8000046A24F001040462846924F0F00444EA31
:102F9000021423F00A020A438461026210BD10B5D4
:102FA000036A23F0100303628469036A24F4704403
:102FB00044EA023223F0A00343EA01118261016274
:102FC00010BD000009494FF000028878830707D53B
:102FD00020F0020020F0010088708A8000207047F5
:102FE00020F0010088708A800120704702000020D4
:102FF00070B50D4601220F490F48FFF76DFB002405
:103000000C4E761E08E00120FDF7E0FE2046641C11
:10301000A84201D9032070BDB078C007F3D0FFF7F4
:10302000D1FF20B100F040F90028F4D170BD042098
:1030300070BD0000030000204006002070B504466B
:10304000049D2046FFF7AAFB29462046BDE87040B4
:10305000FFF7CEBF10B5406A0021C185C184FFF7DC
:103060003EFA10BD0168CA6822F49072CA60016815
:103070004A6922F001024A61202180F83A10704723
:1030800010B50168CA6822F04002CA60202180F8A9
:103090003910FFF7E2FB002010BD10B590F83A1090
:1030A000222901D0022010BD82684FF480539A4239
:1030B00001D1016921B1816A9A421DD052B10BE060
:1030C000816A02685268C2F308020A80816A891C18
:1030D000816209E002697AB10268526802F07F02F7
:1030E0000A70816A491C8162C18D491E0904090C5C
:1030F000C18505D0002010BD026852680A70F0E753
:103100000168CA6822F02002CA600168CA6822F415
:103110008072CA6001684A6922F001024A61202176
:1031200080F83A10FFF704FB002010BD70B504468C
:1031300020680169E26821F4405111430161A168EE
:1031400020690143606901432068C26841F20C6351
:103150009A430A43C26020684169A26921F4407120
:10316000114341611E492068884202D1FEF794FA5A
:1031700001E0FEF781FA00EBC00101EB001061688D
:1031800064228900B0FBF1F3B3FBF2F36FF0180691
:103190007343B0FBF1F5B0FBF1F605EB8305322389
:1031A00003EB0515B5FBF2F5B6FBF2F605F0F005FD
:1031B00005EB0615B0FBF1F6B0FBF1F0B0FBF2F059
:1031C0006FF01801484306EB800003EB0010B0FBE2
:1031D000F2F0216800F00F002844886070BD000004
:1031E0000038014090F83910212901D002207047A1
:1031F0008168B1F5805F01D1016961B1016A4A1C42
:103200000262026809785160C18C491E0904090CE8
:10321000C1840AD013E0016A02680988C1F3080179
:103220005160016A891C0162EEE70168CA6822F0F8
:103230008002CA600068C16841F04001C16000209E
:1032400070472DE9F04104460E4617469846069D04
:103250001DE0681C1BD02DB1FDF7D0FEA0EB0800CF
:10326000A84214D92068C16821F4D071C1602068D7
:10327000416921F001014161202084F8390084F87E
:103280003A00002084F838000320BDE8F08120686F
:10329000006836EA000004D00020B842D9D00020EF
:1032A000F3E70120F9E7000010B50DA10E48FCF787
:1032B0005DFF38B10AA10C48FCF758FF0078C01D2B
:1032C000C0B210BD0848FCF763FF002805DA0648C5
:1032D000FCF75EFF401EC0B210BD002010BD000014
:1032E0004572726F726500008C0400200148FFF780
:1032F000F7B8000040060020FEE700000FB4084BBE
:1033000010B504A902AA039800F0F2F8044602A935
:10331000002000F070FC204610BC5DF814FB00009B
:10332000F73B00080907090E002804DB00F1E02044
:1033300080F80014704700F00F0000F1E02080F8E2
:10334000141D7047004870471C00002002E008C8A8
:10335000121F08C1002AFAD170477047002001E00F
:1033600001C1121F002AFBD1704700002DE9FF5F49
:1033700082B00021DDE90430020DDDF840B00343E6
:1033800018D044F61050A2F2FF324243151411989F
:1033900001281FD0A5EB0B00401C5FEA000A4FF08C
:1033A00000064E4FDFF83891B046504615D5CAF1A9
:1033B000000413E0119801244AA3012801D16FEA07
:1033C0000B010298119AC0E90031C0E9024206B02F
:1033D000BDE8F09FCBF10000DFE704460021404A42
:1033E000491842EB0450CDE9001012E0E00707D085
:1033F00032463B4640464946FDF78AF880468946B4
:1034000032463B4610461946FDF782F806460F46FF
:103410006410002CEAD1DDE90401DDE90023BAF1F2
:10342000000F06DAFDF774F842464B46FDF770F8D8
:1034300005E0FDF7DFF842464B46FDF7DBF80446B2
:103440000E460022284BFDF75DF903D84FF0FF3000
:10345000014607E00022254B20463146FCF7B1FF2C
:10346000FDF737F9102409E0002C0ADB0A220023BB
:10347000FCF707FF039B30321A55641E50EA010225
:10348000F2D1641C039AC4F111031444119A012A65
:1034900003D0012208430DD10AE0084304D00020E4
:1034A0004FF0110B119072E7A3EB0B056D1E0DE0B1
:1034B0005B4504DD4FF0000205F1010504E003DA8D
:1034C0004FF00002A5F10105002AECD002981199F5
:1034D000C0E90231C0E9004579E70000000014406E
:1034E0000000F03F300000000000F0430000E03F2B
:1034F0002DE9FF4F95B09A46884606460025EEE135
:10350000252877D100242746F94A0121039400E0B9
:10351000044316F8013F203B01FA03F01042F7D1B3
:1035200030782A2811D06FF02F033078A0F13002C4
:10353000092A16D8039A44F0020402EB820203EB34
:1035400042021044761C0390EFE758F8042B0392D4
:10355000002A03DA504244F40054039044F0020479
:10356000761C30782E2816D116F8010F44F004048A
:103570002A280DD06FF02F023078A0F13003092BEC
:1035800009D807EB870302EB4303C718761CF3E760
:1035900058F8047B761C30786C280FD006DC4C2859
:1035A00017D068280DD06A2814D104E0742810D0F0
:1035B0007A280FD10DE044F400140AE044F480149A
:1035C00001E044F440147278824202D104F5801480
:1035D000761C761C307866280BD013DC582877D000
:1035E00009DC002875D04528F6D04628F4D04728B5
:1035F0001AD193E118E0632835D0642879D0652882
:1036000012D18BE1702873D008DC6728F1D06928CB
:103610006FD06E280DD06F2806D1ACE073282CD067
:10362000752874D0782853D05246179990476D1C4E
:1036300054E1C4F30250022809D003280DD0D8F871
:10364000001004280DD00D6008F1040846E1D8F8F8
:103650000010EA17C1E90052F6E7D8F800100D8013
:10366000F2E70D70F0E718F8041B8DF80010002049
:103670008DF80100EB46012003E058F804BB4FF041
:10368000FF3061074FF0000102D40DE009F10101A4
:103690008946B9420FDA8145F8DB1BF80910002989
:1036A000F4D108E009F1010189468142FADB1BF8F7
:1036B00009100029F6D103985346A0EB09072146CB
:1036C0003846179A00F080FA284400EB090507E015
:1036D00044E008E10DE01BF8010B524617999047B2
:1036E000B9F10109F7D2534621463846179AF2E05C
:1036F00039E00A21C4F302524FF0000B0091022A74
:1037000006D058F8040BC117032A09D00AE023E0B9
:1037100008F1070020F00702F2E80201904605E0F8
:1037200000B2C117042A01D140B2C117002906DA3C
:103730000A460021404261EB02012D2202E02205EF
:1037400004D52B228DF80420012203E0E20701D0EA
:103750002022F7E7914657E00A2100E010214FF0C0
:10376000000B00910BE010214FF0000B44F004041B
:103770000827009103E008204FF0000B0090C4F3ED
:103780000252022A05D058F8040B0021032A08D05F
:1037900008E008F1070020F00702F2E80201904675
:1037A00003E080B2042A00D1C0B24FF00009220722
:1037B0002AD53278702A07D0DDF800C08CF0100CC2
:1037C0005CEA0B0C05D00EE040228DF804200122AB
:1037D00008E050EA010306D030238DF804308DF85C
:1037E000052002229146009B83F0080353EA0B0355
:1037F0000AD150EA010201D1620705D530228DF8C5
:1038000004204FF001097F1E3278582A04D039A2D3
:103810000C920CAA02920BE03BA2F9E75B46009ADD
:10382000FCF72FFD0C9B9B5C029A521E02921370B8
:1038300050EA0102F2D1029804A9081A00F1200B03
:10384000600702D524F4803400E001275F4502DDE3
:10385000A7EB0B0000E0002000EB0B0100900398A9
:103860004944401A0390E00306D453462146179A70
:10387000039800F0A9F90544002706E001A8524684
:10388000C05D179990476D1C7F1C4F45F6DBE00328
:103890000CD553462146179A039800F095F9054434
:1038A00004E030205246179990476D1C0099481E3D
:1038B00000900029F5DC08E0029802995246007851
:1038C000491C0291179990476D1CBBF10001ABF1A7
:1038D000010BF1DC5BE100F065F90544761C307802
:1038E00000287FF40DAE19B02846BDE8F08F000027
:1038F00009280100303132333435363738396162C6
:103900006364656600000000303132333435363789
:10391000383941424344454600000000600700D466
:10392000062708F1070020F00700F0E80223804690
:1039300003F0004C5FEA0C0001D097A009E02005DD
:1039400001D596A005E0E00701D095A001E0AFF217
:103950004C001390307823F0004365280CD006DC2F
:10396000452809D046281DD047287FD13BE066284E
:1039700018D067287AD136E00021112F01DB112001
:1039800000E0781CCDE9000104A90CA8FFF7EEFCCB
:10399000DDE90D010C9A4FF0000B07F101091092BF
:1039A00000914EE04FF000400097CDE9011004A9CE
:1039B0000CA8FFF7DBFCDDE90D020C9B0F994FF023
:1039C000000B91461093009211B9791C00EB01098C
:1039D000B7EB090003D4C0F1FF3B07F10109A9EBE4
:1039E0000700019042E0012F00DA01270021112F8A
:1039F00001DD112000E03846CDE9000104A90CA842
:103A0000FFF7B4FCDDE90D010C9A00914FF0000BBB
:103A1000B946109221070FD4009A4A4503DA91461D
:103A200001E0A9F10109B9F1010F05DD109AA9F131
:103A30000101515C3029F4D0B84202DA10F1040FD0
:103A400003DA0121CDE9011010E0002803DC8344F2
:103A5000A9EB000102E0411C494500DD8946A0EBCD
:103A60000B00401C01904FF000400290200705D44D
:103A70000198484502DB4FF0FF30019000208DF89F
:103A80004B0002980DF14B07B0F1004F25D00220FA
:103A90000C902B200D90029800280CDA40420290E6
:103AA0002D200D9007E00A210298FCF7D4FB30315D
:103AB000029007F8011D0C99481E0C900029F2DCB9
:103AC00002980028EFD1791E0D980870307800F028
:103AD000200040F0450007F8020D11A8C01BC01DD2
:103AE00002901398007800B1012000EB09010198C1
:103AF00001EBE071029801440398401A401E0390C4
:103B0000E00306D453462146179A039800F05CF868
:103B100005441398007818B15246179990476D1CC8
:103B2000E00323D553462146179A039800F04CF83A
:103B300005441BE0BBF1000F07DB0098584504DD8E
:103B40001098179910F80B0001E017993020524691
:103B5000904701980BF1010B401E05F10105019002
:103B600004D12E205246179990476D1CB9F10001DF
:103B7000A9F10109DEDC05E017F8010B524617999F
:103B800090476D1C0299481E02900029F4DC5346B0
:103B90002146179A03989EE62D0000002B00000096
:103BA000200000002DE9F041044600251E4617467E
:103BB000880404D405E039462020B0476D1C641EFB
:103BC000F9D52846BDE8F0812DE9F04104460025ED
:103BD0001E469046C80301D5302700E02027880400
:103BE00004D505E041463846B0476D1C641EF9D542
:103BF0002846BDE8F0810A68531C0B6010707047BE
:103C00002DE9FF5F80460E469246BAF1000F01D0C3
:103C1000002000E0701E84B2002000F057F900255B
:103C2000AB46184F06F1200928E0BAF1000F0DD07D
:103C300000F030F9B54206D22046641C18F80000A6
:103C4000A4B2F8770FE087F81FB00CE000F030F96D
:103C5000B54206D22046641E18F80000A4B238709F
:103C600001E087F800B000F055F903984FF47A713D
:103C7000B1FBF0F0FDF7AAF86D1CADB24D45D4D301
:103C8000BDE8FF9F20000020024900EB800001EB0F
:103C900040007047C04200082DE9F0470D46144629
:103CA000174A1649127851F82210884784461CF8A2
:103CB000010B1CF8018BA04202D90020BDE8F0875F
:103CC00000244FF0010916E000230022C4F107018F
:103CD00009FA01F609E01CF802704946374202D0A1
:103CE00091401943CBB2521CD2B24245F3D305F8EE
:103CF000013B641CE4B28442E6D3DFE7BC42000827
:103D0000000000202DE9F04104460F4690460026B1
:103D1000254609E000F01CF8304486B26D1C46458B
:103D200002D90020BDE8F08128780028F2D10026D1
:103D300009E0A8EB06018AB23946FFF7ADFF31185A
:103D40008EB20744641C20780028F2D13046E9E79F
:103D500010B5054A0349127851F8221088470078B7
:103D600010BD0000BC420008000000202DE9F04119
:103D700086B0064600250124214F4FF4FA782246EA
:103D800020A102A8FFF7BAFA4346102202A922484E
:103D90000096FFF753F9F42803D331461E48FFF786
:103DA00027F9002826D11D4901F1640201F1C80359
:103DB000012C04D0022C07D0032C0ED109E017F8F7
:103DC00000C001F800C008E017F800C002F800C009
:103DD00003E017F800C003F800C0401C80B264285C
:103DE000E6D36D1CEDB2641CE4B2042CC7D3032DE2
:103DF00003D0042006B0BDE8F0810020FAE70000FF
:103E00008C040020676574576561746865725F256E
:103E10002E75202020200000400600206003002096
:103E200038B504464FF4FA73102213A115480094D4
:103E3000FFF704F9F42803D321461248FFF7D8F816
:103E4000002816D110A11148FCF790F990B10F4845
:103E50000F49233002781E3A0A7042781E3A4A709F
:103E600080781E38887009480022B830FDF774FF4A
:103E7000002038BD042038BD676574446174655402
:103E8000696D650040060020746D00008C04002000
:103E900008000020012005490B180A5C03F8012CDA
:103EA000401C80B22028F7D370470000200000207B
:103EB0001F2005490A1812F8012C0A54401E80B22E
:103EC0000028F7D170470000200000200021034A9D
:103ED0005054491C89B22029FAD370472000002091
:103EE00010B500F037F90121FF2000F084F9072117
:103EF000FF2000F087F90021FF2000F071F90F2169
:103F0000FF2000F071F90020FFF7E0FFBDE810404E
:103F1000AFF300802DE9FC410024154E012500215E
:103F200005FA04F70022002000EBC103F35C3B42DA
:103F300001D0012300E00023C0F1070C03FA0CF3C9
:103F40001343DAB2401CC0B20828EDD3601C42EA29
:103F500000202DF81100491CC9B20429E2D368469B
:103F600000F024F9641CE4B2082CD8D3BDE8FC812D
:103F7000200000208EB0FDF749F9FEF770FFFEF734
:103F80006FFCFEF7D7FCFEF70FFDFEF761FDFEF7B5
:103F900093FDFEF72DFDFEF7ADFCFFF7A1FF01211C
:103FA000FF2000F036F94FF4FA70FCF70FFF002104
:103FB000FF2000F02EF90521FF2000F015F9102058
:103FC0005349CDE90010534A4823022102F1D000A1
:103FD000FCF7EEFC5048C16941F00201C161C069C3
:103FE00000F002000B904B4890300068C16841F02F
:103FF0002001C1604FF47A70FCF7E8FE41F66414CA
:104000000AE03C22454946A0FFF77CFE01461E23FC
:1040100001224248FFF7F4FD2046FFF701FF002888
:10402000EFD142F228340AE03C223C493FA0FFF79E
:1040300069FE01461E2301223848FFF7E1FD2046B4
:10404000FFF794FE0028EFD132480CAA0DA9D0301A
:10405000FCF7F8FC42F2107640F21F37282102A844
:10406000FCF779F82B480CAA0DA9D030FCF7EAFC34
:10407000D0B10C98FCF7DCF804460D460D98FCF71F
:10408000D7F802460B462CA102A8CDE90045FFF760
:1040900035F96422214902A8FFF734FE01461223B4
:1040A00001221E48FFF7ACFD00F0BAF83046FCF7DD
:1040B0008DFE1A493A4601F54870FFF723FE014686
:1040C000192301221548FFF79BFD00F0A9F830469F
:1040D000FCF77CFE11493A4601F56170FFF712FECC
:1040E0000146192301220D48FFF78AFD00F098F8D8
:1040F0003046FCF76BFE09493A4601F57A70FFF746
:1041000001FE0146192301220448FFF779FDA5E7C6
:1041100000080140B00500200010024040000020CF
:10412000496E69742074696D650000006765745795
:104130006561746865720000252E31667420252E35
:1041400031666800012202210148FCF750BF0000DF
:1041500000080140FFF7F6BF1CB542EA012200212A
:1041600000246B46FF2804D0814205D123F811209A
:1041700004E023F8112001E023F81140491CC9B2E2
:104180000429EFD3684600F011F81CBD08B5010AF8
:104190008DF800108DF801004FF0FF3302226946C0
:1041A0000148FDF7DDFE08BD5805002070B5054645
:1041B0000A4E002202213046FCF719FF002435F890
:1041C000020BFFF7E3FF641CE4B2042CF7D3304684
:1041D000BDE8704001220221FCF709BF0008014040
:1041E0000A460921FFF7B8BF0F2900D90F210A4657
:1041F0000A21FFF7B1BF002900D001210A460C2196
:10420000FFF7AABF072900D907210A460B21FFF7AC
:10421000A3BF002900D001210A460F21FFF79CBF50
:104220001CB5002000900190002216491648FDF7A9
:104230003FFC144802780A2A07D243780A2B04D29A
:1042400012A16846FFF75AF813E00A2A05D243780C
:1042500011A16846FFF752F80BE043780A2B04D20D
:1042600010A16846FFF74AF803E011A16846FFF77E
:1042700045F8202210496846FFF744FDFFF74AFE43
:104280001CBD0000080000204405002030252E75CC
:104290003A30252E7500000030252E753A252E75F2
:1042A00000000000252E753A30252E750000000014
:1042B000252E753A252E750020000020893C000827
:1042C00006080000000000000000060800000000D2
:1042D00000000000060800000000000000000608C2
:1042E00000000000000000000608000000000000C0
:1042F00000000608000000000000000006080000A2
:10430000000000000000060800000000000000009F
:104310000608000000000000000006080000000081
:104320000000000006080000000000000000060871
:10433000000000000000000006080000000000006F
:104340000000060800000000000000000608000051
:10435000000000000000060800000000000000004F
:104360000608000000000000000006080000000031
:104370000000000006080000000000000000060821
:10438000000000000000000006080000000000001F
:104390000000060800000000000000000608000001
:1043A00000000000000006080000000000000000FF
:1043B00006080000000000000000060800000000E1
:1043C00000000000060800000000000000000608D1
:1043D00000000000000000000608000000000000CF
:1043E00000000608000000000000000006080000B1
:1043F00000000000000006080000000000000000AF
:104400000608000000000000000006082020202010
:104410002000200006084848480000000000060868
:104420005050F850F850500006082078A07028F03E
:1044300020000608C0C810204098180006086090A8
:10444000A040A8906800060860204000000000001E
:1044500006081020404040201000060840201010A0
:10446000102040000608005020F8205000000608E8
:10447000002020F820200000060800000000006056
:1044800020400608000000F80000000006080000B8
:104490000000006060000608000810204080000056
:1044A0000608708898A8C888700006082060202038
:1044B000202070000608708808304080F800060848
:1044C0007088083008887000060810305090F81086
:1044D00010000608F880F0080888700006083040D0
:1044E00080F0888870000608F808102040404000DE
:1044F0000608708888708888700006087088887838
:104500000810600006080060600060600000060897
:1045100000006060006020400608102040804020BD
:10452000100006080000F800F800000006088040AF
:10453000201020408000060870880810200020000D
:10454000060870880868A8A870000608708888F8AF
:10455000888888000608F08888F08888F0000608B7
:1045600070888080808870000608E0908888889035
:10457000E0000608F88080F08080F8000608F880E7
:1045800080F080808000060870888080988878009D
:104590000608888888F88888880006087020202007
:1045A00020207000060838101010109060000608D7
:1045B0008890A0C0A09088000608808080808080BD
:1045C000F800060888D8A8A888888800060888887F
:1045D000C8A898888800060870888888888870002D
:1045E0000608F08888F08080800006087088888837
:1045F000A89068000608F08888F0A0908800060857
:1046000070888070088870000608F820202020201C
:1046100020000608888888888888700006088888AE
:104620008888885020000608888888A8A8A8500094
:104630000608888850205088880006088888885096
:10464000202020000608F80810204080F800060806
:104650007040404040407000060800804020100834
:10466000000006087010101010107000060820508E
:10467000880000000000060800000000000000F8AC
:104680000608402010000000000006080000700826
:104690007888780006088080B0C88888F00006080E
:1046A0000000708080887000060808086898888874
:1046B0007800060800007088F8807000060830480E
:1046C00040E0404040000608000078888878087084
:1046D00006088080B0C8888888000608200060200E
:1046E000202070000608100030101010906006089E
:1046F000808090A0C0A0900006086020202020208C
:10470000700006080000D0A888888800060800000D
:10471000B0C8888888000608000070888888700003
:1047200006080000F08888F080800608000078887D
:104730008878080806080000B0C880808000060855
:10474000000078807008F00006084040E0404048D3
:104750003000060800008888889868000608000075
:10476000888888502000060800008888A8A8500083
:10477000060800008850205088000608000088883D
:104780008878087006080000F8102040F800060835
:10479000102020402020100006082020202020206B
:1047A00020000608402020102020400006086890C5
:1047B00000000000000006080000000000000000EB
:1047C00006080000000000000000060800000000CD
:1047D00000000000060800000000000000000608BD
:1047E00000000000000000000608000000000000BB
:1047F000000006080000000000000000060800009D
:10480000000000000000060800000000000000009A
:10481000060800000000000000000608000000007C
:10482000000000000608000000000000000006086C
:10483000000000000000000006080000000000006A
:10484000000006080000000000000000060800004C
:10485000000000000000060800000000000000004A
:10486000060800000000000000000608000000002C
:10487000000000000608000000000000000006081C
:10488000000000000000000006080000000000001A
:1048900000000608000000000000000006080000FC
:1048A00000000000000006080000000000000000FA
:1048B00006080000000000000000060800000000DC
:1048C00000000000060800000000000000000608CC
:1048D00000000000000000000608000000000000CA
:1048E00000000608000000000000000006080000AC
:1048F00000000000000006080000000000000000AA
:10490000060800000000000000000608000000008B
:10491000000000000608000000000000000006087B
:104920000000000000000000060800000000000079
:10493000000006080000000000000000060800005B
:104940000000000000000608000000000000000059
:1049500006085000F880F080F8000608000000000B
:10496000000000000608000000000000000006082B
:104970000000000000000000060800000000000029
:10498000000006080000000000000000060800000B
:104990000000000000000608000000000000000009
:1049A00006080000000000000000060800000000EB
:1049B00000000000060800000000000000000608DB
:1049C00000000000000000000608000000000000D9
:1049D00000000608000000000000000006080000BB
:1049E00000000000000006080000000000000000B9
:1049F000060850007088F88070000608000000006B
:104A0000000000000608000000000000000006088A
:104A10000000000000000000060800000000000088
:104A2000000006080000000000000000060800006A
:104A30000000000000000608000000000000000068
:104A40000608708888F8888888000608F88080F052
:104A50008888F0000608F08888F08888F00006084A
:104A6000F88080808080800006083050505050F8D8
:104A700088000608F88080F08080F8000608A8A862
:104A8000A870A8A8A80006087088081008887000F8
:104A90000608888898A8C88888000608A88898A862
:104AA000C88888000608888890E0908888000608F2
:104AB0003848888888888800060888D8D8A8A888B0
:104AC00088000608888888F8888888000608708822
:104AD0008888888870000608F88888888888880010
:104AE0000608F0888888F08080000608708880803A
:104AF000808870000608F82020202020200006086A
:104B0000888888887808F000060870A8A8A8A87087
:104B10002000060888885020508888000608888869
:104B200088888888F808060888888888F80808002F
:104B30000608A8A8A8A8A8A8F8000608A8A8A8A8D1
:104B4000A8A8F8080608C040407048487000060849
:104B5000888888C8A8A8C80006084040407048480F
:104B6000700006087088083808887000060890A849
:104B7000A8E8A8A89000060878888888784888005F
:104B8000060800007008788878000608186080F031
:104B90008888700006080000F088F088F000060899
:104BA0000000F8808080800006080000305050F837
:104BB0008800060800007088F88070000608000071
:104BC000A8A870A8A80006080000708810887000C7
:104BD000060800008898A8C8880006087000889811
:104BE000A8C88800060800008890E09088000608A1
:104BF00000003848888888000608000088D8A888FF
:104C00008800060800008888F888880006080000E8
:104C100070888888700006080000F88888888800F6
:104C200006080000F088F080800006080000708010
:104C30008080700006080000F82020202000060870
:104C4000000088887808F0000608000070A8A870A6
:104C50002000060800008850205088000608000048
:104C600088888888F80C060800008888F8080800FA
:104C700006080000A8A8A8A8F80006080000A8A830
:104C8000A8A8F80806080000C04070487000060890
:104C900000008888C8A8C800060800004040704886
:104CA0007000060800007088388870000608000050
:104CB00090A8E8A890000608000078887848880046
:104CC00000000000000000000102030406070809BC
:104CD000000000000102030400404040404040400A
:104CE00040404141414141404040404040404040BF
:104CF0004040404040404040400502020202020263
:104D000002020202020202020220202020202020B1
:104D100020202002020202020202909090909090C5
:104D20001010101010101010101010101010101083
:104D300010101010020202020202888888888888F7
:104D400008080808080808080808080808080808E3
:104D5000080808080202020240000000D94C0008BE
:104D6000804D000800000020200000004C330008A7
:104D7000A04D000820000020D80A00005C33000885
:104D80000000000000000000000000000100000022
:104D900010000000000000000024F40000000000EB
:04000005080000ED02
:00000001FF
