:020000040800F2
:10000000C80A0020C90000087D210008452000081A
:1000100000000000000000000000000000000000E0
:10002000000000000000000000000000A9230008FC
:1000300000000000000000007F210008AB23000842
:10004000DB00000800000000DB000008DB00000807
:10005000DB000008DB000008DB000008DB00000814
:1000600000000000DB000008DB000008DB000008E7
:10007000DB000008DB000008DB00000800000000D7
:10008000DB0000080000000000000000DB000008AA
:1000900000000000DB000008DB000008DB000008B7
:1000A00000000000DB00000800000000092A000832
:1000B0000448854600F04CFB004800471137000813
:1000C000C046C046C80A002004488047044800478C
:1000D000FEE7FEE7FEE7FEE7FEE7FEE72124000875
:1000E000B100000830B50B46014600202022012453
:1000F00009E00D46D5409D4205D31D469540491B5C
:100100002546954040191546521E002DF1DC30BDA4
:10011000F0B51FB40646002082B005464024019188
:1001200000901BE0019922460F46304600F020F86F
:10013000049A059B801A994110D31046194622460D
:1001400000F0B3F8361A8F410197224601200021B2
:10015000009F00F0AAF838184D4100902046641E18
:100160000028DFDC019B00982946324607B0F0BD2D
:1001700010B5202A04DB0846203AD040002110BDEB
:100180000B46D340D0402024A21A91400843194680
:1001900010BDD2B201E00270401C491EFBD2704774
:1001A0000022F6E710B513460A4604461946FFF743
:1001B000F0FF204610BD30B505462A460B461078A4
:1001C0001C78521C5B1C002801D0A042F7D0002CE8
:1001D00003D0002802D06D1CEFE7284630BD70B573
:1001E000064602F07FFC046805460A2200213046DC
:1001F00000F06CF82C6070BD70B502464A40D50F17
:1002000040004A00ED0740085208002814D0002A98
:1002100012D0C40DD30D41020120C0055202490A7B
:10022000520AE41A091812187D34914201D3641C51
:1002300000E04900002C01DA002070BD002391424B
:1002400001D3891A0343400849000028F7D1002947
:100250000AD0914202D10121C90705E0914201D2A1
:10026000012101E00121C943E005C018401900F057
:1002700065F870BD10B500229623114600F066F8AF
:1002800010BDC20FD207400040080BD0C10D07239C
:10029000DB01C91840020905400A1143C2084007A2
:1002A0001143704700200146704710B5202A04DB37
:1002B0000146203A9140002010BD914020239C1A15
:1002C0000346E3401943904010BD0000F7B5009C81
:1002D0000F4600262578641C002D05D000F05EFA3C
:1002E0000068405DC007F5D12B2D02D02D2D18D010
:1002F000641E39462046029A00F054FA002F04D0BA
:100300003968A14201D100993960710502240029A0
:100310000BDA4042002803DD02F0E4FB0460A00792
:10032000FEBD012080020643E3E70028F8DA02F070
:10033000D9FB04600048FEBDFFFFFF7F002904DAFF
:10034000401C490001D140084000704770B40024AF
:10035000050C05D11024000402D1002921D011245C
:10036000050E01D100020834050F01D10001241D42
:10037000850F01D18000A41C002801DB4000641C13
:10038000002908D020252E1B0D46F540A14000D0A5
:1003900001212943084301061B1B000ADB1D02D56E
:1003A000002070BC7047DB05181880180029F8DAA7
:1003B000401C4900F5D170BC400840007047000067
:1003C000F0B507460846584087B0C00F0490480073
:1003D0000E46590040084908BC1A884105D23846E3
:1003E00031461E4617460B46024658004008104349
:1003F0004DD0300D039040055900400D490D05903A
:10040000401A0290402873DA18030121000B0905F5
:100410000843019004980092002806D01146019AE2
:1004200049420020904100910190029840210A1A0F
:1004300001990098FFF739FF05460C466B4607CB3C
:1004400000F098F9C0197141039A0E0D0023D717D7
:1004500056401A467A40164344D0049A002A2DD0BA
:10046000029A012A039A15DC1205C01A914101264D
:100470003605001C7141D20F059ED20700930192F0
:1004800002962A46234600F0EDF907B0F0BD384643
:100490003146FAE71605234A0F46B218C01AB7418B
:1004A00001210905001C4F4100187F411146181811
:1004B0007941E20F10436D19644113E0E2076D08C2
:1004C00015436408C2071443039A01261205C01A93
:1004D00091413605001C7141CE0740083043490860
:1004E000C01851412A46234600F0AFF9CDE7FFE797
:1004F000049801224000C117121A00238B4104986E
:100500003146C417381AA141EEE730B40124E4079C
:10051000634030BC54E730B40124E407614030BC90
:100520004EE700000000E0FFF0B51FB488B00B9963
:100530000998002448400999C00F490049080991C9
:10054000C0070B990090490049080B910999089838
:10055000A64608431CD00B990A98084318D009985E
:1005600001244000420D4800410D09982405000374
:10057000000B204309900B980003000B20430B90C5
:1005800050181C494018002201901446104605E0FE
:10059000002001460DB0F0BD032801DA034600E05B
:1005A00003239C46C11A0AAE0AE05F0008ADED5B6A
:1005B0004F00F75B7D430027AA187C41491C5B1E56
:1005C0006145F2DD410004AB5A522104120C0A438A
:1005D000240C401C0828DFDB01980290009970462B
:1005E00001910090059B049A0799069800F03AF94A
:1005F000D0E700000DFCFFFFF0B50C465C4085B075
:10060000E40FE40703944C00002664085900944664
:10061000490802460296224321D062460A431ED070
:100620006200570D4A000E032303550D01240246B4
:100630002C492405781B1B0B360B401823432643FB
:10064000614600901C46501AB44103D30098401CE8
:10065000009002E0921800985B41002803DA002025
:10066000014605B0F0BD0020012109050746864678
:1006700011E064461D46141BB54106D36546521B66
:10068000B341744607430C43A646CD0740084908CA
:10069000284392185B4105460D43EAD110461843A2
:1006A00013D06046194650407140084306D060465A
:1006B000101AB34106D20122002306E000220123D2
:1006C000DB0702E00122D243531000987446010573
:1006D000381C6141029C039D0019694100F0B5F886
:1006E000BFE70000FD0300004A0009030123090BD6
:1006F0001B0519430A4B10B5520D9A4202DA00202D
:10070000014610BD064B34339A4203DC9A1AFFF7B8
:100710002FFD10BD034BD218FFF7C7FD10BD000021
:10072000FF030000CDFBFFFF10B5002904DB01240F
:10073000E40740428C412146002B04DB1C46012388
:10074000DB075242A341994200D1904210BD000004
:10075000064C0125064E05E0E36807CC2B430C3C14
:1007600098471034B442F7D3FFF7A6FCFC440008C6
:100770001C45000810B5202A06DBCB170846203A96
:100780001041C1170B4306E00B461341D040202413
:10079000A21A91400843194610BD00000048704756
:1007A000F8440008F7B582B0029C00272078641C4A
:1007B00015460197302802D0002D15D015E020787D
:1007C0000127641C782804D0582802D0002D09D0B5
:1007D0000BE0002D01D0102D07D100271025207827
:1007E000641C02E0082500E00A250026009610E0BF
:1007F0000099012769430818020C294680B2714309
:1008000000908E183804864201D301200190207890
:10081000641C294600F078F80028E9DA03980028DB
:1008200005D0002F01D0641E00E0029C04600198F6
:10083000002806D002F056F902210160C81E05B05A
:10084000F0BD009930040843F9E710B5002B08DA31
:100850000024401C614192185B411A4301D14008B9
:10086000400010BDF0B51FB482B005460C0003D0A7
:10087000084602F0E5F802E002F0E2F82030024615
:10088000009021462846FFF710FD049B059A044678
:100890000F4618431143084314D0184610431BD089
:1008A000009840210A1A18460599FFF761FC054691
:1008B0000E46009A05990498FFF7F7FC084305D007
:1008C000012004E02046394607B0F0BD0020C117E2
:1008D00005430E432C43374300990E986305401A95
:1008E0007905E40A00220C43FD0A0A3002D50020F3
:1008F0000146E9E70105101969410C9C0D9D00199D
:100900006941FFF7A2FFDFE73A2800D23038202301
:1009100002469A43412A01D310463738884201D310
:100920000020C043704770B5827A022A03D0042A9F
:1009300001D0052A2ED1C27A3C3A292A2AD2027B3A
:100940003C2A27D3642A25D8072200230124C5186E
:100950006E7B233E232E1DD8AD7B2E460A3E232ED2
:1009600004D80D7826469640B54306E0373D282D3D
:1009700010D80D78264696403543521E0D7052B25F
:10098000551C01D10722491C9B1CDBB2502BDED326
:10099000012070BD002070BD036800221B685A62F0
:1009A00000680068426A8A42FCD3704770B51D46F1
:1009B0000446059B0498226060602381A17200298F
:1009C00002D0204600F034F820686D1E4560216892
:1009D0000020886022680C49D16021688861206805
:1009E00001F0A0F8206801F0D3F87D24240102E092
:1009F000012000F065F900F039FAA042F8D3142084
:100A000000F05EF970BD0000FFFF000000B585B08A
:100A1000064901910321039101890091002102916E
:100A20004068694600F05EF905B000BD0000311075
:100A300000B5426885B001899161112101910321BE
:100A4000039101890091002102914068694600F0FC
:100A500049F905B000BD0000F7B50446807A0027CB
:100A600088B0002808D025466035022874D00428B4
:100A700072D005286FD16FE021890022606800F0F4
:100A8000EEF96B492046FFF787FF21890122606854
:100A900000F0E5F91E212046FFF77EFF21896068FE
:100AA00000F0D8F9002802D000200BB0F0BD502192
:100AB0002046FFF771FF2189606800F0CBF900281C
:100AC000F3D028212046FFF767FF00970026019703
:100AD00000210420871B6846C1550D4621896068A6
:100AE00000F0B8F90028F9D01E212046FFF754FF86
:100AF0002189606800F0AEF9002808D007206B4615
:100B0000421BD95D0120904001436846C1552189AF
:100B1000606800F09FF90028F9D16D1CEDB2082D36
:100B2000DCD3761CF6B2052ED2D368468078FFF768
:100B3000A1FB0546E06668460078FFF79BFB20674F
:100B40000998002800D005600A98002801D0216F7C
:100B500001600120A9E766E02046FFF769FF2089D0
:100B6000616800048861052000F0AAF861682089A6
:100B7000886114212046FFF70FFF20896168000477
:100B8000886105212046FFF707FF60200753A7660D
:100B900020680068476200F069F906462046FFF7C2
:100BA00035FF00F063F9801B08283CD800F05EF99F
:100BB000616E401A0128F4D902A92046FFF7B3FE5E
:100BC000002830D06846017A407A0B186846827A4D
:100BD000C17A50181818C3B26846007B834222D1EC
:100BE00010024018FFF746FB124E3146FFF704FB98
:100BF000E0660999002900D008606846007A010281
:100C00006846407A0818FFF735FB3146FFF7F4FADB
:100C100020670A99002900D0086001202875204625
:100C2000FFF706FF95E72F752046FFF701FF3BE72B
:100C3000384A00000000204130B5014620314B7891
:100C40000022022B04D0042383630A70012030BDEC
:100C500003681C680E25AC431C6003681C686408AC
:100C600064001C600123056C1C46C06BAC404460F2
:100C70004B700A70002030BD70B500240146203151
:100C80004A78022A03D004218163012416E0026815
:100C900013680E25AB431360026813685B085B00A2
:100CA00013600122056C1346AB40C56B6B604A7044
:100CB00000220A70416B002900D08847204670BD91
:100CC00070B5044600F0D2F80546601C02D0044816
:100CD0000078241800F0CAF8401BA042FAD370BD77
:100CE00008000020FCB500230124A1E027462A4685
:100CF0009F403A4073D04D68012D05D0022D03D09E
:100D0000112D01D0122D16D185680326AC465D0049
:100D1000AE46AE406546B543AC46CE687546AE407D
:100D200065462E43866046680D79BE43ED06ED0F9D
:100D30009D4035434560C6685F000325BD40AE4613
:100D4000AE4335468E68BE402E43C6604E68022EC6
:100D500001D0122E14D1DE08B60036180196366A7C
:100D60005D07B446EE0E0F25B54000966646AE43CD
:100D7000B4460D69009EB54066462E43019D2E6225
:100D800006687546AE430D79AD07AD0FBD403543DE
:100D900005604D68ED004AD5284DAE692643AE6129
:100DA000AD699E08ED07ED0F0095254DB60075194C
:100DB000AC46AD689E07360F0F27B740BD430927E5
:100DC000FF06B84201D1002710E01E4FB84201D102
:100DD00001270BE01C4FB84202D1022706E026E0B3
:100DE0001A4FB84201D1032700E00527B7402F432F
:100DF0006546AF60164E35684F689543FF0300D5D2
:100E00001543356075684F689543BF0300D515439A
:100E10007560B5684F689543FF0200D51543B5600E
:100E2000F5684F689543BF0200D51543F5605B1C1C
:100E30000A681546DA4000D058E7FCBD00100240B1
:100E4000000001400004004800080048000C004871
:100E5000000401400069084000D001207047002ACA
:100E600001D081617047816270470000014880684D
:100E70007047000008000020024881680278891845
:100E8000816070470800002010B5064801681022F4
:100E900011430160002000F007F800F027F800205F
:100EA00010BD00000020024070B504460D4D7D20AD
:100EB0002978C000FFF716F901460B480068FFF7D4
:100EC00011F900F017FE002809D1042C07D20022E6
:100ED0002146401E00F02AF800206C6070BD012001
:100EE00070BD0000080000201400002008B508486C
:100EF0008169012211438161816911400091C269B8
:100F000001040A43C261C0690840009008BD0000A6
:100F100000100240002805DBC106C90E01208840F0
:100F2000014908607047000000E100E010B501F0E1
:100F3000B7FD10BDF8B505460068354CC00352D565
:100F4000E0690026C00007D4E16920040143E161A3
:100F5000E1690140012600912E480168C90510D4BD
:100F60000168821511430160FFF780FF074604E026
:100F7000FFF77CFFC01B642824D826480068C00502
:100F8000F6D5206A03273F02384020D069683940EF
:100F900081421CD0206A226AB843012109040A4315
:100FA0002262226A8A4322622062C0070FD0FFF7C2
:100FB0005DFF009008E0FFF759FF0099411A1648BD
:100FC000814201D90320F8BD206A8007F3D5206A49
:100FD0006968B84308432062002E04D0E16901200B
:100FE00000078143E1612878C00705D0206BA9681C
:100FF00080088000084320632878800605D5206B90
:1010000010218843E968084320630020F8BD0000F0
:10101000001002400070004088130000F8B50F4631
:10102000060059D03A4D2868C007C00FB84209D20F
:10103000286840084000384328602868C007C00F6F
:10104000B84249D13068334C81070CD5400704D5EC
:10105000606807210902084360606068F0218843E6
:10106000B168084360603078C00726D070680128F6
:101070000ED0216802280ED0890700292CDA616879
:101080008908890001436160FFF7F0FE00900DE0E0
:1010900021688903F1E78901EFE7FFF7E7FE00998F
:1010A000411A1D48814201D90320F8BD60680C2116
:1010B0000840716889008842EFD12868C007C00FD6
:1010C000B8420BD928684008400038432860286897
:1010D000C007C00FB84201D00120F8BD30784007EA
:1010E00006D56068072109028843F16808436060FB
:1010F00000F028F86168094A0906090F515CC840E8
:10110000074908600020FFF7CFFE0020F8BD00006F
:101110000020024000100240881300005C440008D8
:10112000140000200448054900684968044A49053C
:10113000490F515CC8407047140000200010024065
:101140006C44000810B514A30FCB88B06C460FC4D4
:1011500015A30FCB0FC4184A51680C200B4603404F
:101160001648042B16D0082B14D18B021B0F6C468B
:10117000E45CD26A04AB1207120F9A5CC90305D56E
:1011800000231946FEF7C4FF214601E020460C4922
:1011900001F06DFC08B010BD020304050607080944
:1011A0000A0B0C0D0E0F10100102030405060708B0
:1011B000090A0B0C0D0E0F100010024000127A00ED
:1011C00000093D00FEB5040070D02078DC4DC0075A
:1011D0004AD068680007800F012807D068680007B8
:1011E000800F022809D16868C00306D528688003EB
:1011F0003AD560680028E7D036E06168012914D04C
:1012000001208004002901D0052914D02A68012179
:1012100009048A432A60296881432960606800289C
:1012200016D0FFF723FE06460EE0286801210904C8
:1012300008432860F2E7296801432960F5E7FFF7D2
:1012400015FE801B64286ED828688003F7D50BE054
:10125000FFF70CFE064604E0FFF708FE801B64283B
:10126000F1D828688003F7D4207801268007002869
:101270003CDA68680007800F07D068680007800FB5
:10128000022809D16868C00306D42868800716D5EB
:10129000E06801280AD112E0E0680028286816D02A
:1012A00030432860FFF7E2FD074605E043E1FFF722
:1012B000DDFDC01B0228C6D828688007F7D528683E
:1012C000F82188432169C900084328600EE04008DE
:1012D00040002860FFF7CAFD074604E0FFF7C6FD9F
:1012E000C01B0228AFD828688007F7D420780007F1
:1012F00022D5E0690028686A0ED030436862FFF7A3
:10130000B5FD074604E0FFF7B1FDC01B02289AD8DF
:10131000686A8007F7D50FE0400840006862FFF771
:10132000A5FD074605E09DE0FFF7A0FDC01B0228D4
:1013300089D8686A8007F7D42078042740070028F6
:1013400060DA00200190E869C00008D4E969B806B5
:101350000143E961E9690140012000910190794868
:101360000168C90511D40168821511430160FFF7B6
:101370007DFD009005E0FFF779FD0099401A642893
:1013800070D870480068C005F5D5A06801280AD05B
:10139000002801D0052810D0286A400840002862A3
:1013A000286AB84301E0286A30432862A068002810
:1013B00012D0FFF75BFD00900AE0286A38432862EC
:1013C000F1E7FFF753FD0099411A5F48814249D880
:1013D000286A8007F5D50DE0FFF748FD009006E08C
:1013E000FFF744FD0099411A574881423AD8286ACC
:1013F0008007F5D40198002804D0E969012000078E
:101400008143E9612078C00635D5606901280CD098
:10141000401D686B23D038436863686B4008400008
:101420006863FFF723FD064622E0686B3843686374
:10143000686B30436863FFF719FD064604E0FFF769
:1014400015FD801B02285BD8686B8007F7D5686B99
:10145000F8218843A169C900084368630BE0B843D9
:101460006863F4E74CE0FFF701FD801B022847D8D2
:10147000686B8007F7D4206A00285ED06968090786
:10148000890F022942D0012636060228286805D095
:10149000B0432860FFF7EAFC044633E0B04328601D
:1014A000FFF7E4FC074604E0FFF7E0FCC01B02285E
:1014B00026D828688001F7D4E86AE16A00090001AB
:1014C0000843E862616AA06A084369683D22120421
:1014D000914308436860286830432860FFF7C6FCE2
:1014E000044604E0FFF7C2FC001B022808D8286865
:1014F0008001F7D521E0FFF7B9FC001B022801D9D4
:101500000320FEBD28688001F5D416E00128F8D03C
:101510006868E96A01221204636A02409A420AD1A9
:101520000907E26A090F914205D10F218904084099
:10153000A16A884201D00120FEBD0020FEBD00004E
:1015400000100240007000408813000030B50B46C8
:101550000168896A5960016809694904490C996000
:10156000006804680F482146014088024D04800E3F
:1015700018706D0E49065D70490E99706102490E32
:1015800040242140D970002A0AD100F0F9FD1870DA
:10159000587800F0F5FD5870987800F0F1FD9870DB
:1015A000002030BD7F7F7F0070B5040003D0607FD6
:1015B000002802D006E0012070BD002020772046E0
:1015C00000F04CF8022060772168CA204862216848
:1015D00053204862204600F0E6FDFF25042600283F
:1015E00024D1206881681C4A114081602168886884
:1015F00062686369104322691A4310438860216856
:10160000E0680861206801692289120411430161C0
:101610002068C16880229143C1602068806880068C
:1016200008D4204600F0F6F8002803D02068456270
:101630006677C0E72068016C01229204914301643F
:101640002068016CA2691143016420684562012091
:101650006077002070BD0000BFFF8FFF0068054964
:10166000884205D10448016A0122D2031143016274
:10167000704700000028004000100240F8B5044602
:10168000007F0B4601280FD00120207702206077D1
:10169000002A0BD0D8789D78000405435878097843
:1016A00000024903084317E00220F8BD5878C1063C
:1016B00003D5EF2108400A305870D87800F068FD53
:1016C0000504587800F064FD00020543987800F0A6
:1016D0005FFD05431878400305432168CA2048622E
:1016E000216853204862204600F05DFD0026FF2758
:1016F000002811D10F480540206845602068C16866
:1017000080229143C1602068806880060BD4204607
:1017100000F080F8002806D0206847620420607737
:1017200026770120F8BD2068476201206077267780
:101730000020F8BD3FFFFF00F8B50446007F0D46CE
:10174000012821D00120207702206077206800271F
:101750008068002A1AD0400600D4EF702878AE784E
:10176000000406436878E978000209040843064348
:101770002168CA204862216853204862204600F050
:1017800012FD002834D114E00220F8BD400600D438
:10179000EF70287800F0FCFC0604687800F0F8FC94
:1017A00000020643A87800F0F3FC0643E878000442
:1017B000DDE717480640206806602068816801223E
:1017C0009204914381602969E868084321688A6826
:1017D000104388602068C16880229143C1602068FE
:1017E000806880060CD4204600F014F8002807D04A
:1017F0002168FF2048620420607727770120F8BD28
:101800002168FF2048620120607727770020F8BD1B
:101810007F7F7F0070B504460068C168A0229143B5
:10182000C160FFF723FB7D260546F60006E0FFF7C3
:101830001DFB401BB04201D9032070BD2068C06869
:101840008006F4D5002070BDF8B504000CD0606AA5
:10185000002500280AD02561656126464036A5622C
:10186000707F002808D00BE00120F8BD6168C81F18
:10187000FD38F2D0E561F0E73577204600F05CF8FE
:101880000222727720680168402399430160072390
:10189000E1681B02994201D9002001E00120000308
:1018A0000F273F02B94202D0994200D0A562FF2320
:1018B0006168053319402127A368BF023B401943E3
:1018C00023691340227D1943D207D20F114301230C
:1018D000A2695B021A401143E26938231A4011439E
:1018E000226A80231A401143A26A9B011A401143C5
:1018F00022681160A1690422090C1140626A102358
:101900001A401143626B08231A4011430F23E26807
:101910001B021A40114301221203104001432068A8
:1019200041602068C16952109143C1612566012060
:1019300070770020F8BD000010B586B00446142171
:101940006846FEF72DFC1149206888421CD11048DA
:10195000826981140A43826182690A400592426960
:1019600049010A434261406908400590A020009067
:10197000022001900021032003900291049109208C
:101980006946C006FFF7AEF906B010BD0030014051
:1019900000100240FFB5054604464035287F002769
:1019A00081B01646012809D001202877FFF75EFA9A
:1019B0000090687F012804D0022795E0022005B03E
:1019C000F0BD0298002872D0002E70D003206877F6
:1019D000002020660299A163A687E6872064A8807C
:1019E000E8802065E0640122A068D2034021904293
:1019F00008D1206802688A430260206802680B02EE
:101A00001A43026020680268520602D402680A4340
:101A100002600721E06809028842606826D9002830
:101A200001D0012E1ED1A06B21680088C86006E09D
:101A300020688168890709D5A16B0988C160A06BFE
:101A4000801CA063E08F401EE0870BE0FFF70EFADA
:101A50000099411A0498814202D3401C02D039E017
:101A6000002837D0E08F0028E2D126E0002801D0FE
:101A7000012E1FD1A06B21680078087306E0206852
:101A80008168890709D5A16B09780173A06B401C97
:101A9000A063E08F401EE0870CE0FFF7E7F90099B4
:101AA000411A0498814203D3401C03D012E01AE08B
:101AB00000280FD0E08F0028E1D12046009A049939
:101AC00000F08DFB002801D020202066A0680028AF
:101AD00002D005E0032707E02068C1688068009015
:101AE000206E002800D00127012068770020287789
:101AF000384664E7094910B5401E884201D90120E3
:101B000010BD074C60610321081F00F0C9FF0020D1
:101B1000A06107202061002010BD0000FFFFFF0032
:101B200000E000E070B5040005D025462035687F50
:101B3000002802D006E0012070BD00202877204652
:101B400000F014F802206877211D206800F06AFC7C
:101B500001204034A071A877E87720706070A070F1
:101B6000E070207160716877002070BD08B5006872
:101B70000549884207D10548C26981150A43C261F7
:101B8000C0690840009008BD0020004000100240DD
:101B9000014620314A7F012A01D0012070470222EC
:101BA0004A77006808490122884202D007498842E2
:101BB00004D181684907490F062902D00168114301
:101BC0000160002070470000002C0140000400402C
:101BD00070477047F8B502680446D0691168966886
:101BE0007B4B05461D402023002D6CD0F707794D17
:101BF000FF0FBC460D402F4379D02546C7078035DF
:101C0000002F06D0CF0504D5012717622A683A4372
:101C10002A60820708D5F20706D0276802223A62B6
:101C20002A6804273A432A60420708D5F20706D0FB
:101C30002668042232622A68022632432A6002079A
:101C40000AD50A461A406646324305D0266808225D
:101C500032622E6816432E60020508D54A0106D569
:101C600001222668D20232622A681A432A602A6850
:101C7000002A30D0800606D5880604D5616E00297A
:101C800001D020468847286821688968490602D41F
:101C90002821084225D0204600F0E6FC2068816813
:101CA000490619D5826840218A438260206F002846
:101CB00012D049494163206FFEF7DEFF00280AD0A9
:101CC000206F416B06E0850611D58D060FD5616E3C
:101CD0006BE020468847F8BD2046FFF77AFFF8BD45
:101CE00005E02046FFF775FF00202860F7E7256E26
:101CF000012D55D1C50653D5CD0651D510261662F6
:101D000020688168254649064035002929DA226F76
:101D1000116849680904090CE1D02F8B8F42DED984
:101D200069839169202917D00168320191430160CC
:101D300020688168490849008160206882684021E4
:101D40008A438260E3670020206620680168B1430F
:101D50000160206FFEF770FF288B698B401A81B2FB
:101D60001AE0298B6A8B891A6A8B89B2002AB6D04D
:101D70000029B4D00268FF252135AA4302602068FB
:101D80008268520852008260E36700202066606625
:101D900020680268B24302602046FFF719FF9EE701
:101DA000050605D50D0603D5A16E002991D196E74C
:101DB000400694D5480692D52046146840218C43AD
:101DC000146083670021816600F03BF987E700001B
:101DD0000F080000200100045526000810B504007B
:101DE00003D0A06F002802D007E0012010BD002121
:101DF00074200155204600F027F82420A0672068B1
:101E00000168490849000160204600F0BDFC012836
:101E1000ECD0606A002802D0204600F083FB2068E6
:101E200041680122D2029143416020688168082202
:101E300091438160206801680122114301602046BE
:101E400000F0D6FB10BD000010B586B0044614218A
:101E50006846FEF7A5F916492068884226D115483C
:101E60008269012189030A43826182690A400592DD
:101E70004269C9000A4342614069084005900C204C
:101E80000090022001900020029003200390012086
:101E9000049009206946C006FEF724FF002211467F
:101EA0001B20FFF743F81B20FFF734F806B010BDE6
:101EB000003801400010024030B5C36F202B24D100
:101EC00000290BD0002A09D0012483682403A342EF
:101ED00006D10369002B03D1CB0701D0012030BD0F
:101EE000034660331C7D012C0FD001241C75002398
:101EF000036603685C68240204D51C680125AD06EE
:101F00002C431C6000F0CEFC30BD022030BD000030
:101F100070B50068124988421BD11248124B4188A3
:101F2000002906D1002214469C54521C92B2642A05
:101F3000FAD30C4A0578012452780D2D0CD0632970
:101F400008D05D54491C4180012206490748FFF72B
:101F5000B3FF70BD02210A432243427070BD0000EE
:101F6000003801400200002088040020B80500204D
:101F7000FFB50446806F83B017460D4620285ED11A
:101F8000002D0AD0002F08D0A168C001814207D1DE
:101F90002069002804D1E80702D0012007B0F0BD75
:101FA000204660300090007D012848D00098012133
:101FB00001750020802108512120A067FEF756FFFF
:101FC000264640360190378277820120A1680003BF
:101FD000814202D12069002805D02F4600250099B2
:101FE0000020087511E00027F9E700228021204633
:101FF00000F098FC002815D1002F15D02168387802
:1020000008857F1C708A401E7082708A019B0028A0
:1020100006980090E9D100224021204600F082FC81
:10202000002808D00320B9E728882168C005C00D22
:102030000885AD1CE6E72020A0670020AEE702205F
:10204000ACE77047FEE7000070B586B01421684623
:10205000FEF7A6F812484269012149040A43426189
:1020600040690022084012218E0605903046FEF796
:10207000F6FE0220009001200024032501AA31C2AF
:1020800069463046FEF72EFE10200090112001AA6E
:1020900031C269463046FEF725FE06B070BD00002D
:1020A0000010024010B586B014216846FEF778F89B
:1020B000002413491348059412C07F2101608460F5
:1020C000C460FF21046141600838FFF76DFA68467B
:1020D0000470447084700394002269460948049493
:1020E000FFF72AFB01216846017541758175C475AA
:1020F000002205A90348FFF7C1FA06B010BD000091
:1021000000280040EC04002010B50F480D49016084
:10211000FF2105314160002103228160120201612B
:10212000C260012241615202826101621022416259
:10213000C26181620722C262016308214163FFF725
:1021400083FB10BD003001400C05002010B50A488B
:1021500008490160E1214902416000218160C160BC
:1021600001618161C1610C22016242614162FFF73C
:1021700035FE10BD00380140B8050020704770479B
:1021800001090A2200075143000F4018C0B27047EE
:10219000002102E00A38C0B2491C0A28FAD2090715
:1021A000090E0843704770B504460068C1684906C7
:1021B00013D40021C943C160FEF758FE7D260546B1
:1021C000F60006E0FEF752FE401BB04201D90320A4
:1021D00070BD2068C0684006F4D5002070BDF8B519
:1021E0000F460B4615460092032104460022C90201
:1021F00000F01CF82026002812D13B460022802146
:102200002046009500F074F8002809D103213B46D0
:10221000002249022046009500F008F8002803D06B
:10222000206E304320660320F8BD0000FFB583B068
:1022300017460E4604460C9DFEF718FE411B0698F5
:10224000451AFEF713FE01902848232100684843F1
:10225000000D684342E0032149028E4202D1002F63
:1022600000D1007B0698401C39D0FEF7FFFD019994
:10227000401AA84205D2002D03D0009800282BD088
:102280002BE020684168E022914341606068C11FF3
:10229000FD390CD10121A068C903884202D049113F
:1022A000884204D1206801684022914301600120E6
:1022B000A16A4003814207D121680A6882430A600B
:1022C00021680A6802430A600120403460770020D8
:1022D0002077032007B0F0BD0025401E0090206845
:1022E00081683140B942B6D10020F3E714000020E4
:1022F000FFB581B01E4604460A9DFEF7B7FD401BA0
:10230000351AFEF7B3FD0746264800684001000D68
:10231000684339E0701C38D0FEF7A8FDC01BA84206
:1023200005D2002D03D0009800282BD02BE0206888
:102330004168E022914341606068C11FFD390CD1C2
:102340000121A068C903884202D04911884204D102
:10235000206801684022914301600120A16A400386
:10236000814207D121680A6882430A6021680A68AD
:1023700002430A6001204034607700202077032068
:1023800005B0F0BD0025401E0090206881680298CD
:10239000884305D0002103988142BBD10020EFE79C
:1023A0000121F8E714000020704710B5FEF764FD26
:1023B00010BD000030B595B030216846FDF7F0FE45
:1023C00000240F940A2000900D9401200C94129484
:1023D0001194039007900E9405201394C004109458
:1023E0001021022509940A90089504910B946846DF
:1023F000FEF7E8FE07200C900E9401210D950F9436
:102400000CA8FEF70BFE05481090C0111190129415
:1024100010A8FEF78FFD15B030BD000001000100CF
:102420007047000070B50268174B184E984201D0F3
:10243000B04203D17024A2434C682243144C154D82
:10244000984208D0B04206D0134EB04203D0A0420A
:1024500001D0A84204D103263602B243CE683243EB
:102460008026B2434E69324302608A68C2620A68BB
:102470008262984203D0A04201D0A84201D10969EA
:1024800001630121416170BD002C01400004004046
:10249000004401400048014000200040094900225A
:1024A00048788307002B07DAFD23184040084000D6
:1024B00048704A80002070474008400048704A80B9
:1024C000012070470200002070B50D4601220E4920
:1024D0000E48FFF7F1FC00240B4E08E00120FEF748
:1024E000EFFB2046641CA84201D9032070BD707820
:1024F000C007F3D0FFF7D2FF002802D000F062FA45
:1025000070BD042070BD000002000020B80500204E
:1025100070B50546049CFFF72BFD21462846FFF7C2
:10252000D3FF70BD10B5818CC90707D001684A6818
:1025300001235B049A43836A1A434A60818C8907AA
:1025400007D501684A6801231B049A43C36A1A43EA
:102550004A60818C490707D501684A6801239B04BA
:102560009A43036B1A434A60818C090707D50168B7
:102570004A680123DB039A43436B1A434A60818C08
:10258000C90607D50268916801231B039943836B31
:1025900019439160818C890607D501688A680123F7
:1025A0005B039A43C36B1A438A60818C490612D538
:1025B00003685A6801210905046C8A4322435A6062
:1025C000026C8A4207D10268516803235B05994374
:1025D000436C19435160818C090607D501684A682C
:1025E0000123DB04806C9A4302434A6010BD000063
:1025F000F8B50446002680300660FEF737FC054635
:1026000020680068124F000709D501212B460022DF
:1026100049052046009700F085F900280DD1206873
:10262000006840070BD501212B4600228905204672
:10263000009700F077F9002801D00320F8BD202092
:10264000A067E0672666603426750020F8BD0000AC
:10265000FFFFFF0110B5406A0022014640314A8366
:102660004A82FFF7B6FA10BD01680A68FF232133DA
:102670009A430A6001688A68520852008A60016EB3
:10268000012904D101680A6810239A430A602021B5
:10269000C167002101664166704770B5044640304D
:1026A000828BE36F2168222B04D0886908221043B3
:1026B000886170BD898C636D11401980616D891CC2
:1026C0006165418B491E4183418B0029F1D121680D
:1026D0000A68FF2321339A430A6021688A685208F6
:1026E00052008A602021E16700256566216E01297C
:1026F00004D02046FFF70CFC256670BD21680A68EF
:1027000010239A430A60018B2046FFF761FAF3E732
:1027100070B504464030828BE36F2168222B04D0D1
:10272000886908221043886170BD898C1140626DF0
:102730001170616D491C6165418B491E4183418B5C
:102740000029F1D121680A68FF2321339A430A60E6
:1027500021688A68520852008A602021E1670025BA
:102760006566216E012904D02046FFF7D1FB25665E
:1027700070BD21680A6810239A430A60018B2046C5
:10278000FFF726FAF3E7000070B504468068216978
:10279000E2690843616900251143084321680A681A
:1027A0003C4B1A4002430A60216848680322120326
:1027B0009043E26810434860A169206A0843216899
:1027C0008A680B231B029A4302438A603248006BDB
:1027D0008007800F16D0012818D0022818D00328AF
:1027E00012D010210120E369C0032C4A2C4E8342F1
:1027F0002BD100290ED002290FD004290FD008298F
:102800003FD110E00021EDE70221EBE70421E9E7E9
:102810000821E7E7FEF786FC03E0104603E0FEF739
:1028200091FC002831D0616840004A088018FDF70B
:1028300059FC80B201461039B14222D81849491CCE
:1028400001400007400F08431DE0002906D002297F
:1028500007D0042907D0082913D108E0FEF762FC4D
:1028600003E0104603E0FEF76DFC00280DD0616820
:102870004A081018FDF736FC80B201461039B14203
:1028800001D9012501E02168C86000206066A066CA
:10289000284670BDF369FFFF0010024000127A0065
:1028A000EFFF000030B54165014640310A834A839D
:1028B00000224266012385681B03FF249D4204D148
:1028C0000569002D23D1144C21E0002D1BD08A83F3
:1028D00080210A502221C16701688C6801252C43A0
:1028E0008C608168994202D10169002911D00B499D
:1028F000416674210A5400680168FF2221321143A5
:102900000160002030BD0569002D00D07F248C833C
:10291000DEE70349ECE70000FF0100001127000893
:102920009B260008FFB581B005460F46044660357A
:102930000A9E39E0701C37D0FEF798FA0499401AC5
:10294000B04222D8002E20D02068016849072BD53C
:10295000C069C043000527D401202168C002086275
:1029600020680168FF22A1329143016020688168DC
:102970004908490081602020A067E067803420601A
:1029800000202875032005B0F0BD20680168FF22F3
:10299000A132914301602068816849084900816043
:1029A0002020A067E067EBE72068C16938468843CC
:1029B00005D0002103988142BCD00020E3E701212B
:1029C000F8E7000010B50DA10E48FDF7F4FB002854
:1029D00006D00AA10B48FDF7EEFB0078C01D08E009
:1029E0000848FDF7FCFB002805DA0648FDF7F7FB71
:1029F000401EC0B210BD002010BD00004572726FB5
:102A0000726500008804002010B50248FFF7E2F864
:102A100010BD0000B80500200FB410B504A9074B85
:102A200002AA039800F02CF9044602A9002000F045
:102A3000C5FC204610BC08BC04B01847BD330008D4
:102A40002021020C01D010211046020A01D01046AC
:102A50000839020901D01046091F820801D010462A
:102A6000891E420801D0881E7047081A7047F8B5C1
:102A7000040C8BB2264682B25E430D0C1046370C16
:102A80005843360480190021794116466E43370CAD
:102A900036048019794126466E438919F8BD000035
:102AA0008307FF22DB0E9A408907090E9940002810
:102AB00008DB830809489B001B18186890430843EB
:102AC000186070470007000F0838830804489B000F
:102AD0001B18D86990430843D861704700E400E0B0
:102AE00000ED00E0004870471800002002E008C830
:102AF000121F08C1002AFAD170477047002001E078
:102B000001C1121F002AFBD170470000F0B51FB4AD
:102B100086B00998089A030D0021024314D0514849
:102B2000514A1818504305141198012810981AD0CA
:102B3000281A401C00264D4F4D49009601910490E3
:102B4000002812DA444211E01198012449A3012817
:102B500001D11098C1430698119A84600360C26045
:102B600041600BB0F0BD4042E4E70446210500207F
:102B70003F4A001C51410391029012E0E00707D048
:102B800032463B4601990098FDF7CEFC019100903A
:102B900032463B4610461946FDF7C6FC06460F4630
:102BA0006410002CEAD10498039B0028029A09992A
:102BB000089806DAFDF7B8FC019B009AFDF7B4FC13
:102BC00005E0FDF719FD019B009AFDF715FD044690
:102BD0000E460022284BFDF7A7FD03D80020C04376
:102BE000014607E00022254B20463146FDF7E8FB71
:102BF000FDF77AFD102409E0002C0ADB0A220023ED
:102C0000FDF786FA079B30321A55641E02460A43C6
:102C1000F2D11122641C079B121B1C19119B012B62
:102C200003D0012308430ED10AE0084304D0112049
:102C300010900020119077E71098151A6D1E0BE088
:102C40001098824202DD00236D1C03E0824201DA0B
:102C500000236D1E002BEED0069811998260C16092
:102C600030C07EE701FCFFFF104D00000000144063
:102C70000000F03F300000000000F0430000E03FA3
:102C8000FFB597B0064600251BE2252876D1002423
:102C90002746F749049400E00443761C327801206B
:102CA000203A90400842F7D130782A280ED00222EC
:102CB000307801463039092916D804990A23594336
:102CC000303940181443761C0490F1E7189802C874
:102CD00004911890002904DA01204003044348427B
:102CE000049002200443761C30782E2814D104204E
:102CF00004437078761C2A2809D11898761C80C85D
:102D0000189009E00A214F43303FC719761C3078EC
:102D1000014630390929F5D930786C2810D006DC05
:102D20004C281AD068280ED06A2817D104E07428DD
:102D300013D07A2812D110E00120400504430CE0A2
:102D40000121090501E0032109050C437178814245
:102D500003D1012000052418761C761C30786628E3
:102D60000BD013DC58287DD009DC00287BD0452807
:102D7000F6D04628F4D047281AD1A9E118E06328F4
:102D800035D0642870D0652812D1A1E170286CD0AC
:102D900008DC6728F1D069287DD06E280DD06F2817
:102DA00006D1BCE073282ED0752873D0782859D06E
:102DB0001A9A199990476D1C82E16002400F02280F
:102DC00009D003280DD00428189801680DD00D6093
:102DD000001D189074E11898EA1701680D604A60A8
:102DE000F6E7189801680D80F2E70D70F0E7189883
:102DF0006A4601781172001D18900020507202A8D6
:102E00000090012005E0189802C818900020009159
:102E1000C04361070ED5002101E00199491C0191D1
:102E2000B94213DA8142F8DB019A0099895C0029E2
:102E3000F3D10BE0002101E00199491C019181428D
:102E4000FADB019A0099895C0029F5D1019904986F
:102E50001A9B471A21463846199A00F099FA4019E8
:102E6000019903E051E030E115E050E0451807E03A
:102E7000009800990078491C00911A9A1999904776
:102E80000198401E0190401CF2D1214638461A9B01
:102E9000199A12E137E00A200021009001916002A6
:102EA000410F022907D0189A01CA1892C2179446F6
:102EB000032908D00AE01898C01DC108C90005C937
:102EC0001891944607E000B2C2179446042902D133
:102ED00040B2C1178C4600226146944506DA0A4684
:102EE0000021404291418C462D2102E0210504D56C
:102EF0002B216A461173012103E0E10701D0202153
:102F0000F7E7029156E00A200AE0102008E01020BE
:102F100000900021042004430191082703E00820C9
:102F20000021019100906002410F022907D0189AF8
:102F300001CA189200229446032908D008E0189884
:102F4000C01DC108C90005C91891944603E080B2AC
:102F5000042900D1C0B20021029121072AD531787D
:102F60000D91702906D0009A1021019B4A401A4306
:102F700005D00EE040216A461173012108E0614648
:102F8000014306D030216A4611730D995173022115
:102F90000291009A0821019B4A401A430AD16146D6
:102FA000014301D1610705D530216A461173012122
:102FB0007F1E02913178582904D02EA10E910DA9BF
:102FC0000D910DE030A1F9E76146019B009AFDF7F4
:102FD0009FF80E9B8C469B5C0D9A521E0D921370AF
:102FE00061460143F0D10D9805A9081A20300190DF
:102FF000600703D501200004844300E00127019805
:10300000874201DD381A00E0002001990090411844
:10301000029809180498401A0490E00306D4214647
:103020001A9B199A049800F0B3F94519002706E095
:1030300003A81A9AC05D199990476D1C7F1C0298CD
:103040008742F5DBE0030CD521461A9B199A0498B8
:1030500000F09EF9451904E01A9A3020199990471A
:103060006D1C0099481E00900029F5DC1FE000004F
:10307000092801003031323334353637383961624E
:103080006364656600000000303132333435363712
:103090003839414243444546000000000D980D99DF
:1030A0000078491C0D911A9A199990476D1C019945
:1030B000481E01900029F1DC4DE100F059F9451955
:1030C000761C3078002800D0DFE528461BB0F0BD24
:1030D000600700D406271898C01DC108C9004868B9
:1030E0000A680831C30FDB071891190001D09CA1B1
:1030F00008E0210501D59BA104E0E10701D09AA1D8
:1031000000E09AA14300109130785B0865280CD04C
:1031100006DC452809D046281DD0472841D141E08A
:10312000662818D067283CD13CE00021112F01DB34
:10313000112000E0781C0191009008A911A8FFF768
:10314000E5FC139905910021119A15927F1C1298A4
:103150000197009150E00120C007039001200190E9
:1031600008A9009711A8FFF7D1FC139A14990592AA
:103170000022119B009212981593059A0192002942
:1031800001D0104602E0791C40180190381A01D590
:10319000019804E04042401E0090781C0190C01B42
:1031A000029043E0012F00DA01270021112F01DDF9
:1031B000112000E038460191009008A911A8FFF7FE
:1031C000A5FC13990591119A00211298159200916E
:1031D000019721070CD40599B94201DB019900E060
:1031E0000191012904DD159A491E515C302906D050
:1031F000B84201DA011D05DA0121029115E00199B9
:10320000491EEDE7002805DC00994118009101995D
:10321000091A03E0019A411C914200DD01910099D5
:10322000401A401C02900120C0070390200706D4DA
:1032300002990198814202DB0020C04302900020E5
:103240006946C87707AF012103980337C907884249
:1032500024D0022011902B201290039800280CDA21
:10326000404203902D20129007E00A210398FCF7BA
:1032700039FF30317F1E039039701199481E11902B
:103280000029F2DC03980028EFD1791E129808700B
:103290003078202108404530BF1E387006A8C01B7A
:1032A000C01D039010980078002800D001200199DB
:1032B00041180298C0170918039809180498401A71
:1032C000401E0490E00306D421461A9B199A0498E4
:1032D00000F05EF8451910980078002803D01A9A7B
:1032E000199990476D1CE00324D521461A9B199A21
:1032F000049800F04DF845191CE00098002807DB01
:1033000000990598884203DD1598405C199901E001
:10331000199930201A9A904700986D1C401C009013
:103320000298401E0290002804D11A9A2E20199962
:1033300090476D1C0199481E01900029DDDC05E0D5
:1033400038781A9A7F1C199990476D1C0399481E6A
:1033500003900029F4DC21461A9B199A0498ACE6E4
:103360002D0000002B0000002000000000000000E5
:10337000F8B5044600251E461746880404D405E027
:1033800039462020B0476D1C641EF9D52846F8BD8B
:10339000FFB50446002581B01E46C80301D530277D
:1033A00000E02027880404D505E038460399B0479B
:1033B0006D1C641EF9D5284605B0F0BD0A68531C83
:1033C0000B60107070470000FFB581B003980E4687
:1033D000002801D0002000E0701E84B2002000F020
:1033E00047F900253746203729E0039800280DD0FB
:1033F00000F022F9B54205D20198015D1248641C23
:10340000C1770CE010490020C8770DE000F022F9E8
:10341000B54206D20198015D0B48641E0170A4B24A
:1034200002E009490020087000F046F97D20C00044
:103430000499FCF757FEFDF743FC6D1CADB2BD428D
:10344000D3D305B0F0BD00001C0000200A21484382
:103450000149401870470000583A0008F7B516496E
:1034600014460978154A89005158884703784678E8
:10347000801CA34201D90020FEBD002218E00024D8
:103480000725AD1A01272146AF4008E0455C3D42C3
:1034900003D001258D402543ECB2491CC9B2B1428D
:1034A000F4D301990C700199491C521CD2B20191BC
:1034B0009A42E4D31846FEBD00000020584400089C
:1034C000F7B50E4604460027054609E000F01CF853
:1034D000C01987B202986D1C874201D90020FEBD39
:1034E00028780028F2D1002509E00299491B8AB208
:1034F0003146FFF7B3FF291836188DB2641C2078C7
:103500000028F2D12846FEBD10B50449044A0978C6
:10351000890051588847007810BD00000000002045
:1035200058440008F0B500251E4E85B0074601241A
:1035300022461DA101A8FFF76FFAFF23F5331022E1
:1035400001A91E480097FEF7E3FFF42803D339468C
:103550001A48FEF7B9FF00281FD11949012C04D0E1
:10356000022C05D0032C0BD106E0325C0A5407E094
:10357000134A335C643202E00A4A335C643A1354FF
:10358000401C80B26428E9D36D1C641CE4B2EDB227
:10359000042CCDD3032D02D0042005B0F0BD0020B3
:1035A000FBE7000088040020676574576561746854
:1035B00065725F252E75202020200000B8050020B0
:1035C0005C03002038B50446FF230090F533102239
:1035D00013A11648FEF79CFFF42803D32146134895
:1035E000FEF772FF002818D111A11248FCF7E3FD85
:1035F000002813D00F480D492030C27884311E3A7C
:103600000A7002791E3A4A70407900221E3888708A
:1036100008486430FEF790F8002038BD042038BD1B
:103620006765744461746554696D6500B805002070
:10363000746D000088040020054901200A180B5C05
:10364000203A401C80B2D3772028F7D3704700007F
:103650001C00002005491F200A18203AD27F0A5476
:10366000401E0004000CF7D1704700001C00002031
:10367000034A00215054491C89B22029FAD37047CB
:103680001C00002010B500F037F90121FF2000F0E8
:1036900088F90721FF2000F08DF90021FF2000F0BC
:1036A00071F90F21FF2000F073F90020FFF7E0FF10
:1036B00000F002F810BD0000FEB500240021012238
:1036C000A24000252846CE00104B3718DB5D134082
:1036D00000D0012307273F1ABB402B43401CC0B238
:1036E000DDB20828F0D32002FF3001304B00284320
:1036F000491C6D46C9B2E8520429E2D3284600F0BD
:1037000029F9641CE4B2082CD8D3FEBD1C000020AB
:103710008EB0FDF7B9FBFEF74DFEFEF795FCFEF708
:10372000C1FCFEF7F1FC6348614901600021416082
:103730008160C16001618161FEF7F4F9FEF706FD69
:10374000FFF7A0FF0121FF2000F03DF9FF20F53039
:10375000FDF7B6FA0021FF2000F035F90521FF2022
:1037600000F016F90920C006524A1021009001917C
:10377000104630230021E030FDF718F94E48C269A9
:1037800002210A43C261C06908400090494848309C
:10379000006801682022114301607D20C000FDF710
:1037A0008FFA464C0AE03C22454946A0FFF788FEC6
:1037B00001461E2301224248FFF706FE2046FFF77E
:1037C00001FF0028EFD1424C2046FFF7ABFE002856
:1037D0000BD03C223A493FA0FFF772FE01461E2360
:1037E00001223748FFF7F0FDEEE732480DAA0CA999
:1037F000E030FDF731F93A4E3A4F282102A8FCF7A4
:10380000CFFC2C480DAA0CA9E030FDF725F90028C3
:103810001AD00D98FCF735FD04460D460C98FCF7C0
:1038200030FD0B46024630A102A801950094FFF737
:10383000F3F86422224902A8FFF742FE0146122350
:1038400001221F48FFF7C0FD00F0C6F83046FDF723
:1038500037FA3A461A492748FFF732FE014619233C
:1038600001221748FFF7B0FD00F0B6F83046FDF72B
:1038700027FA20483A4612496430FFF721FE0146F4
:10388000192301220E48FFF79FFD00F0A5F83046EE
:10389000FDF716FA17483A460949C830FFF710FEF7
:1038A0000146192301220648FFF78EFDA5E7000017
:1038B0000020004070050020001002406419000044
:1038C0003C000020496E69742074696D6500000039
:1038D000282300006765745765617468657200008D
:1038E000102700001F030000252E31667420252EAE
:1038F000316668005C03002010B509200122022116
:10390000C006FDF7ACFA10BD7CB50B0213430021D5
:103910000C466A46FF2801D0814202D14D00535324
:1039200001E04D005453491CC9B20429F2D310469A
:1039300000F010F87CBD000008B5020A69460A7064
:1039400048700023DB4302220148FEF723F808BD3C
:103950000C05002070B509260546F6060022022156
:103960003046FDF77CFA00242888AD1CFFF7E4FF01
:10397000641CE4B2042CF7D3012202213046FDF787
:103980006EFA70BD10B50A460921FFF7BDFF10BDE4
:1039900010B50F2900D90F210A460A21FFF7B4FFFD
:1039A00010BD10B5002900D001210A460C21FFF7F7
:1039B000ABFF10BD10B5072900D907210A460B211E
:1039C000FFF7A2FF10BD10B5002900D001210A4663
:1039D0000F21FFF799FF10BD1CB500200090024693
:1039E00001900F490F48FDF7B1FD0D48027843786B
:1039F0000A2A05D20A2B01D20BA106E00DA104E090
:103A00000A2B01D20EA100E010A16846FFF704F8CE
:103A1000202210496846FFF753FDFFF74DFE1CBDFD
:103A20003C060020EC04002030252E753A30252E6F
:103A30007500000030252E753A252E750000000017
:103A4000252E753A30252E7500000000252E753A7A
:103A5000252E75001C000020060800000000000054
:103A6000000006080000000000000000060800003A
:103A70000000000000000608000000000000000038
:103A8000060800000000000000000608000000001A
:103A9000000000000608000000000000000006080A
:103AA0000000000000000000060800000000000008
:103AB00000000608000000000000000006080000EA
:103AC00000000000000006080000000000000000E8
:103AD00006080000000000000000060800000000CA
:103AE00000000000060800000000000000000608BA
:103AF00000000000000000000608000000000000B8
:103B00000000060800000000000000000608000099
:103B10000000000000000608000000000000000097
:103B20000608000000000000000006080000000079
:103B30000000000006080000000000000000060869
:103B40000000000000000000060800000000000067
:103B50000000060800000000000000000608000049
:103B60000000000000000608000000000000000047
:103B70000608000000000000000006080000000029
:103B80000000000006080000000000000000060819
:103B90000000000000000000060800000000000017
:103BA00000000608202020202000200006084848A9
:103BB00048000000000006085050F850F85050002F
:103BC00006082078A07028F020000608C0C8102041
:103BD0004098180006086090A040A8906800060869
:103BE00060204000000000000608102040404020F7
:103BF0001000060840201010102040000608005059
:103C000020F8205000000608002020F820200000A6
:103C1000060800000000006020400608000000F8D0
:103C200000000000060800000000006060000608B8
:103C300000081020408000000608708898A8C888F6
:103C40007000060820602020202070000608708880
:103C500008304080F8000608708808300888700036
:103C6000060810305090F81010000608F880F00890
:103C7000088870000608304080F0888870000608C8
:103C8000F808102040404000060870888870888836
:103C900070000608708888780810600006080060C8
:103CA0006000606000000608000060600060204066
:103CB0000608102040804020100006080000F80090
:103CC000F800000006088040201020408000060810
:103CD0007088081020002000060870880868A8A8CE
:103CE00070000608708888F8888888000608F088C0
:103CF00088F08888F00006087088808080887000CE
:103D00000608E09088888890E0000608F88080F037
:103D10008080F8000608F88080F080808000060827
:103D200070888080988878000608888888F8888855
:103D30008800060870202020202070000608381017
:103D400010101090600006088890A0C0A090880015
:103D50000608808080808080F800060888D8A8A89F
:103D60008888880006088888C8A898888800060877
:103D700070888888888870000608F08888F08080BD
:103D80008000060870888888A89068000608F08877
:103D900088F0A090880006087088807008887000FD
:103DA0000608F8202020202020000608888888881F
:103DB000888870000608888888888850200006084F
:103DC000888888A8A8A850000608888850205088AD
:103DD0008800060888888850202020000608F808F7
:103DE00010204080F80006087040404040407000BD
:103DF000060800804020100800000608701010100F
:103E0000101070000608205088000000000006080E
:103E100000000000000000F806084020100000002C
:103E20000000060800007008788878000608808086
:103E3000B0C88888F0000608000070808088700094
:103E400006080808689888887800060800007088C6
:103E5000F88070000608304840E040404000060806
:103E6000000078888878087006088080B0C8888844
:103E7000880006082000602020207000060810003E
:103E80003010101090600608808090A0C0A09000B4
:103E90000608602020202020700006080000D0A81E
:103EA0008888880006080000B0C88888880006084E
:103EB000000070888888700006080000F08888F08C
:103EC00080800608000078888878080806080000C6
:103ED000B0C8808080000608000078807008F0007C
:103EE00006084040E040404830000608000088884E
:103EF0008898680006080000888888502000060816
:103F000000008888A8A850000608000088502050AB
:103F10008800060800008888887808700608000075
:103F2000F8102040F8000608102020402020100043
:103F300006082020202020202000060840202010F5
:103F400020204000060868900000000000000608DD
:103F50000000000000000000060800000000000053
:103F60000000060800000000000000000608000035
:103F70000000000000000608000000000000000033
:103F80000608000000000000000006080000000015
:103F90000000000006080000000000000000060805
:103FA0000000000000000000060800000000000003
:103FB00000000608000000000000000006080000E5
:103FC00000000000000006080000000000000000E3
:103FD00006080000000000000000060800000000C5
:103FE00000000000060800000000000000000608B5
:103FF00000000000000000000608000000000000B3
:104000000000060800000000000000000608000094
:104010000000000000000608000000000000000092
:104020000608000000000000000006080000000074
:104030000000000006080000000000000000060864
:104040000000000000000000060800000000000062
:104050000000060800000000000000000608000044
:104060000000000000000608000000000000000042
:104070000608000000000000000006080000000024
:104080000000000006080000000000000000060814
:104090000000000000000000060800000000000012
:1040A00000000608000000000000000006080000F4
:1040B00000000000000006080000000000000000F2
:1040C00006080000000000000000060800000000D4
:1040D00000000000060800000000000000000608C4
:1040E000000000000000000006085000F880F0808A
:1040F000F8000608000000000000000006080000AC
:1041000000000000000006080000000000000000A1
:104110000608000000000000000006080000000083
:104120000000000006080000000000000000060873
:104130000000000000000000060800000000000071
:104140000000060800000000000000000608000053
:104150000000000000000608000000000000000051
:104160000608000000000000000006080000000033
:104170000000000006080000000000000000060823
:104180000000000000000000060850007088F88061
:104190007000060800000000000000000608000093
:1041A0000000000000000608000000000000000001
:1041B00006080000000000000000060800000000E3
:1041C00000000000060800000000000000000608D3
:1041D00000000000000000000608708888F8888849
:1041E00088000608F88080F08888F0000608F088CB
:1041F00088F08888F0000608F88080808080800041
:1042000006083050505050F888000608F88080F0BA
:104210008080F8000608A8A8A870A8A8A80006082A
:1042200070880810088870000608888898A8C888D0
:1042300088000608A88898A8C88888000608888882
:1042400090E0908888000608384888888888880028
:10425000060888D8D8A8A88888000608888888F81A
:104260008888880006087088888888887000060812
:10427000F8888888888888000608F0888888F08010
:104280008000060870888080808870000608F8200A
:104290002020202020000608888888887808F000E0
:1042A000060870A8A8A8A8702000060888885020D2
:1042B000508888000608888888888888F808060852
:1042C00088888888F80808000608A8A8A8A8A8A8C8
:1042D000F8000608A8A8A8A8A8A8F8080608C040DA
:1042E0004070484870000608888888C8A8A8C80098
:1042F000060840404070484870000608708808383A
:1043000008887000060890A8A8E8A8A890000608E9
:1043100078888888784888000608000070087888BF
:1043200078000608186080F0888870000608000091
:10433000F088F088F00006080000F8808080800097
:1043400006080000305050F8880006080000708809
:10435000F880700006080000A8A870A8A800060849
:104360000000708810887000060800008898A8C8AF
:104370008800060870008898A8C888000608000011
:104380008890E090880006080000384888888800F7
:104390000608000088D8A8888800060800008888D9
:1043A000F888880006080000708888887000060871
:1043B0000000F8888888880006080000F088F080EF
:1043C00080000608000070808080700006080000F1
:1043D000F820202020000608000088887808F000D7
:1043E0000608000070A8A870200006080000885089
:1043F000205088000608000088888888F80C060885
:1044000000008888F808080006080000A8A8A8A8E6
:10441000F80006080000A8A8A8A8F80806080000E8
:10442000C04070487000060800008888C8A8C8000E
:1044300006080000404070487000060800007088C0
:10444000388870000608000090A8E8A890000608C8
:1044500000007888784888004D340008000000008B
:104460000000000001020304060708090000000024
:104470000102030400404040404040404040414170
:104480004141414040404040404040404040404029
:1044900040404040400502020202020202020202C3
:1044A00002020202022020202020202020202002C0
:1044B0000202020202029090909090901010101050
:1044C00010101010101010101010101010101010EC
:1044D0000202020202028888888888880808080880
:1044E000080808080808080808080808080808084C
:1044F0000202020240000000754400081C4500084A
:10450000000000201C000000EC2A000838450008CC
:104510001C000020AC0A0000FC2A0008000000007B
:104520000000000001000000040000000000000086
:0845300000127A0000000000F7
:04000005080000B13E
:00000001FF
